:020000040000FA
:0600000084EF0BF012007A
:020006001200E6
:0600080014EF00F01200ED
:02000E000200EE
:10001000441700008A0000000A000000401700009A
:080020000000000004000000D4
:08002800DACFE4FFE2CFDAFFBA
:10003000E9CFE4FFEACFE4FFF6CFE4FFF7CFE4FF38
:10004000F5CFE4FFF3CFE4FFF4CFE4FFFACFE4FF12
:1000500000EE04F0140EE80403E3EECFE4FFFBD758
:1000600000EE18F0080EE80403E3EECFE4FFFBD740
:10007000E652F2A01AD18150816E070E015C16E3A0
:1000800080B605D081B802D060EC05F00ED080B209
:100090000CD081B80AD00150012AEA6A940FE96EA7
:1000A000000EEA223D0EEF6E95D9FDD080B044D00F
:1000B00081B80FD02B0E8C6E0150012AEA6A940F82
:1000C000E96E000EEA228CCFEFFF73D978D9022AAD
:1000D00032D081BA0FD02D0E8C6E0150012AEA6AFF
:1000E000940FE96E000EEA228CCFEFFF62D967D938
:1000F000022A21D081BC0FD02A0E8C6E0150012A19
:10010000EA6A940FE96E000EEA228CCFEFFF51D914
:1001100056D9022A10D081BE0ED02F0E8C6E0150FF
:10012000012AEA6A940FE96E000EEA228CCFEFFFF3
:1001300040D945D9022AB7D080B23DD081B80BD082
:100140000150012AEA6A940FE96E000EEA223D0E80
:10015000EF6E40D92FD081BA0ED0330E8C6E015085
:10016000012AEA6A940FE96E000EEA22330EEF6E5E
:1001700020D925D91FD081BC0ED0360E8C6E0150EF
:10018000012AEA6A940FE96E000EEA22360EEF6E3B
:1001900010D915D90FD081BE0DD0390E8C6E0150FB
:1001A000012AEA6A940FE96E000EEA22390EEF6E18
:1001B00000D905D978D080B440D081B80ED0300EA7
:1001C0008C6E0150012AEA6A940FE96E000EEA2251
:1001D000300EEF6EEED8F3D82FD081BA0ED0320E9B
:1001E0008C6E0150012AEA6A940FE96E000EEA2231
:1001F000320EEF6EDED8E3D81FD081BC0ED0350EA4
:100200008C6E0150012AEA6A940FE96E000EEA2210
:10021000350EEF6ECED8D3D80FD081BE0DD0380EAC
:100220008C6E0150012AEA6A940FE96E000EEA22F0
:10023000380EEF6EBED8C3D836D080B634D081B871
:1002400003D060EC05F02FD081BA0ED0310E8C6E49
:100250000150012AEA6A940FE96E000EEA22310E7B
:10026000EF6EA7D8ACD81FD081BC0ED0340E8C6EE8
:100270000150012AEA6A940FE96E000EEA22340E58
:10028000EF6E97D89CD80FD081BE0DD0370E8C6EF4
:100290000150012AEA6A940FE96E000EEA22370E35
:1002A000EF6E87D88CD8F29024D09EA022D09E905A
:1002B0003C0ECF6EB00ECE6E0050030A16E0010A5F
:1002C0000FE0030A08E0010A01E013D0010E006EFE
:1002D0007E0E896E0ED0020E006E7D0E896E09D0E4
:1002E000030E006E7B0E896E04D0006A770E896E55
:1002F00000D0E55200EE1FF0080EE80403E3E5CF5E
:10030000EDFFFBD700EE17F0140EE80403E3E5CF92
:10031000EDFFFBD7E5CFFAFFE5CFF4FFE5CFF3FF25
:10032000E5CFF5FFE5CFF7FFE5CFF6FFE5CFEAFF35
:10033000E5CFE9FFE5CFDAFF1100F10E936E956A84
:10034000F80E946E700E926E070EC16E11D8F28E7A
:10035000F28CF2869D809E90F290140ECD6E3C0E33
:10036000CF6EB00ECE6E7E0E896ECD80FFD712009E
:10037000380E8C6E18D809D8010E8C6E14D805D89A
:100380000F0E8C6E10D8C5EF01F0010ED56E0B0E5E
:10039000D76EBC0ED66EC9EF08F0480ED56EFD0EB6
:1003A000D66EC9EF08F0829082928284F6DF829442
:1003B0001200828082928284F0DF82941200829006
:1003C0008282958E8294E9DF828483BEFBD78294F9
:1003D000959E1200D9CFE6FFE1CFD9FF190EE12695
:1003E000060EDB6A070EDB6A080EDB6A090EDB6AA3
:1003F0000A0EDB6A0B0EDB6A0C0EDB6A0D0EDB6A83
:100400000E0EDB6A110EDB6A120EDB6A130EDB6A5C
:10041000140EDB6A150EDB6A160EDB6A170EDB6A3A
:10042000020E025C14E35DEC08F0E76E130EE7CFFA
:10043000DBFFDB5002E15ADB0AD0030403E0020ECB
:10044000035C05E1010EF36E0A0EF3CFDBFF130E22
:10045000DB0403E0020401E024D3AADBE76E180EFC
:10046000E7CFDBFF0A0EDB50EA6A940FE96E000E5D
:10047000EA22EF5001E1E8D20A0EDB50EA6A940F5B
:10048000E96E000EEA22EF502B0847E00A0EDB501F
:10049000EA6A940FE96E000EEA22EF502D083DE063
:1004A0000A0EDB50EA6A940FE96E000EEA22EF5062
:1004B0002F0833E00A0EDB50EA6A940FE96E000E53
:1004C000EA22EF502A0829E00A0EDB50EA6A940F6C
:1004D000E96E000EEA22EF503D081FE00A0EDB50E5
:1004E000EA6A940FE96E000EEA22EF50D00FE66E32
:1004F000D9CF18F0DACF19F00B0EDBCFF3FFDB2AE0
:10050000F350020D1850F324E96E1950F420EA6EEE
:10051000E552E750EE6EED6A94D20B0EDB50030A03
:1005200011E0010A09E0030A01E012D0010EF36EA6
:100530000F0EF3CFDBFF0CD00A0EF36E0F0EF3CFCE
:10054000DBFF06D0640EF36E0F0EF3CFDBFF00D09F
:10055000100EDB6A0B0EDB50F36E100EDBCFF4FFD8
:10056000F350F45C3CE20F0EDB501E6E1F6AD9CFD5
:100570001CF0DACF1DF0100EDBCFF3FFDB2AF350B7
:10058000020D1C50F324E96E1D50F420EA6EEECFEC
:100590001AF0EFCF1BF01AC00CF01BC00DF01EC0FC
:1005A00011F01FC012F03CEC0AF00AC018F00BC0AA
:1005B00019F0D950060FE96EDACFEAFF1850EE268F
:1005C0001950ED220A0E186E18C012F00F0EDBCF74
:1005D0000DF092EC0BF00F0E0DC0DBFFBBD7060E3B
:1005E000DBCF18F0070EDBCF19F0000E185C010E00
:1005F000195808E3010EF36E0C0EF3CFDBFF76DA29
:1006000023D219D2180EDB502B0869E1030457E1FD
:10061000120EDB5012E1010EF36E120EF3CFDBFF70
:10062000060EDBCF0CF0070EDBCF0DF0080E0CC072
:10063000DBFF090E0DC0DBFF41D0080EDBCF18F049
:10064000090EDBCF19F0060EDBCF1AF0070EDBCF59
:100650001BF01A50185C1B5019581CE2080EDBCF17
:1006600018F0090EDBCF19F0D950060FE96EDACF7A
:10067000EAFF1850EE5E1950ED5A060EDBCF0CF073
:10068000070EDBCF0DF0080E0CC0DBFF090E0DC00E
:10069000DBFF14D0010EF36E0D0EF3CFDBFF060E61
:1006A000DBCF18F0070EDBCF19F0D950080FE96E39
:1006B000DACFEAFF1850EE5E1950ED5A0FD0060E51
:1006C000DBCF18F0070EDBCF19F0D950080FE96E19
:1006D000DACFEAFF1850EE261950ED22ACD1180EF1
:1006E000DB502D0801E083D003042AE10E0EDB501D
:1006F00012E1010EF36E0E0EF3CFDBFF060EDBCF21
:100700000CF0070EDBCF0DF0080E0CC0DBFF090E5E
:100710000DC0DBFF14D0010EF36E0D0EF3CFDBFF27
:10072000060EDBCF18F0070EDBCF19F0D950080FFB
:10073000E96EDACFEAFF1850EE261950ED2256D0B6
:100740000E0EDB5012E1010EF36E0E0EF3CFDBFF47
:10075000060EDBCF0CF0070EDBCF0DF0080E0CC041
:10076000DBFF090E0DC0DBFF41D0080EDBCF18F018
:10077000090EDBCF19F0060EDBCF1AF0070EDBCF28
:100780001BF01A50185C1B50195821E2010EF36E31
:100790000D0EF3CFDBFF080EDBCF18F0090EDBCF19
:1007A00019F0D950060FE96EDACFEAFF1850EE5E65
:1007B0001950ED5A060EDBCF0CF0070EDBCF0DF013
:1007C000080E0CC0DBFF090E0DC0DBFF0FD0060EBC
:1007D000DBCF18F0070EDBCF19F0D950080FE96E08
:1007E000DACFEAFF1850EE5E1950ED5A24D1180EF8
:1007F000DB502A0865E1030434E10E0EDB5012E100
:10080000010EF36E0E0EF3CFDBFF060EDBCF0CF006
:10081000070EDBCF0DF0080E0CC0DBFF090E0DC07C
:10082000DBFF1ED0010EF36E0D0EF3CFDBFF060EC5
:10083000DBCF18F0070EDBCF19F0D950080FE96EA7
:10084000DACFEAFF18C011F019C012F0EECF0CF0A9
:10085000EDCF0DF03CEC0AF00AC0EEFF0BC0EDFF4F
:100860002ED00E0EDB5012E1010EF36E0E0EF3CF02
:10087000DBFF060EDBCF0CF0070EDBCF0DF0080E12
:100880000CC0DBFF090E0DC0DBFF19D0060EDBCF5D
:1008900018F0070EDBCF19F0D950080FE96EDACF48
:1008A000EAFF18C011F019C012F0EECF0CF0EDCF36
:1008B0000DF03CEC0AF00AC0EEFF0BC0EDFFBBD020
:1008C000010EF36E110EF3CFDBFF03045DE10E0E9C
:1008D000DB501AE1010EF36E0E0EF3CFDBFF060EB6
:1008E000DBCF0CF0070EDBCF0DF0D0EC08F0140ED0
:1008F0000BC0DBFF150E0CC0DBFF160E0DC0DBFFBF
:10090000170E0EC0DBFF3FD0010EF36E0D0EF3CFBE
:10091000DBFF140EDBCF18F0150EDBCF19F0160E2F
:10092000DBCF1AF0170EDBCF1BF0060EDBCF0CF07F
:10093000070EDBCF0DF0D0EC08F00BC01CF00CC0A4
:100940001DF00DC01EF00EC01FF01CC010F01DC029
:1009500011F01EC012F01FC013F018C00BF019C028
:100960000CF01AC00DF01BC00EF0E5EC08F0140EF0
:100970000BC0DBFF150E0CC0DBFF160E0DC0DBFF3E
:10098000170E0EC0DBFF57D00E0EDB501AE1010E22
:10099000F36E0E0EF3CFDBFF060EDBCF0CF0070E6F
:1009A000DBCF0DF0D0EC08F0140E0BC0DBFF150E02
:1009B0000CC0DBFF160E0DC0DBFF170E0EC0DBFFF9
:1009C0003AD0140EDBCF18F0150EDBCF19F0160E4F
:1009D000DBCF1AF0170EDBCF1BF0060EDBCF0CF0CF
:1009E000070EDBCF0DF0D0EC08F00BC01CF00CC0F4
:1009F0001DF00DC01EF00EC01FF01CC010F01DC079
:100A000011F01EC012F01FC013F018C00BF019C077
:100A10000CF01AC00DF01BC00EF0E5EC08F0140E3F
:100A20000BC0DBFF150E0CC0DBFF160E0DC0DBFF8D
:100A3000170E0EC0DBFF060EDB6A070EDB6A0B0E1D
:100A4000DB6A0A0EDB2A0ED50C0EDB502AE1110EF2
:100A5000DB5012E1080EDBCFE6FF090EDBCFE6FF2D
:100A60000D0EDBCFE6FF0C0EDBCFE6FFEBD8E55239
:100A7000E552E552E55215D00D0EDBCFE6FFD95019
:100A8000140FE96EDACFEAFFEECFE6FFEECFE6FF16
:100A9000EECFE6FFEFCFE6FFECD8186E050EE15E75
:100AA0001850190EE15C02E2E16AE552E16EE5528E
:100AB000E7CFD9FF1200C00E8C6E75DCDFEF01F0BE
:100AC000010E8C6E70DC61DC016A090E015C09E2CA
:100AD0000150012AEA6A940FE96E000EEA22EF6AD9
:100AE000F4D7016A036A006A026A1200D9CFE6FFEE
:100AF000E1CFD9FFE652DF6A1ED8DF50EA6A8A0FDB
:100B0000E96E000EEA22EF500CE0DF50DF2AEA6ABD
:100B10008A0FE96E000EEA22EF508C6E4ADC4FDC41
:100B2000ECD733DC32DC31DC30DC05D8E552E55281
:100B3000E7CFD9FF1200D9CFE6FFE1CFD9FFE652C8
:100B4000DF6AB9DF100EDF5C06E2200E8C6E31DC4E
:100B500036DCDF2AF7D7AFDFE552E552E7CFD9FF22
:100B60001200D9CFE6FFE1CFD9FF020EE126DF6AFE
:100B7000010EDB6AFE0EDB0404E1DE520A0EDD6EBE
:100B800003D0DE520B0EDD6E010EDBCFE6FF7EDA08
:100B9000E552FE0EDBCFE6FFEBDAE552020EE15C3A
:100BA00002E2E16AE552E16EE552E7CFD9FF1200B9
:100BB000D9CFE6FFE1CFD9FFE652DF6A030403E0B5
:100BC000020E035C03E1010EDF6E01D0DF6ADF502D
:100BD000EA6A940FE96E000EEA22EF502EE0DF5031
:100BE000EA6A940FE96E000EEA22EF502B081BE030
:100BF000DF50EA6A940FE96E000EEA22EF502D08EA
:100C000012E0DF50EA6A940FE96E000EEA22EF501C
:100C10002F0809E0DF50EA6A940FE96E000EEA221D
:100C2000EF502A0808E1DF50EA6A940FE96E000EDF
:100C3000EA22EF5002D0DF2ACAD7E552E552E7CFC9
:100C4000D9FF1200D9CFE6FFE1CFD9FF34DFFD0E87
:100C5000DBCFE6FF86DFE552FB0EDBCFE6FFFC0EC7
:100C6000DBCFE6FFC9D8E552E552E552E7CFD9FF21
:100C70001200D9CFE6FFE1CFD9FF030EE126FB0E2C
:100C8000DBCF0BF0FC0EDBCF0CF0FD0EDBCF0DF05D
:100C9000FE0EDBCF0EF05AEC0AF0DE520CC0DEFF87
:100CA0000DC0DDFFDD5207DFFA0EDB5007E1080E55
:100CB000DF6EDFCFE6FFEAD9E5520BD0070EDF6E1D
:100CC000DFCFE6FFE3D9E552FA0EDBCFE6FF50DADD
:100CD000E552010EDBCFE6FF020EDBCFE6FF8CD83C
:100CE000E552E55291D9FB0EDBCF18F0FC0EDBCFBD
:100CF00019F0FD0EDBCF1AF0FE0EDBCF1BF0010E5C
:100D0000DBCF0CF0020EDBCF0DF0D0EC08F00BC007
:100D10001CF00CC01DF00DC01EF00EC01FF01CC05A
:100D200010F01DC011F01EC012F01FC013F018C04B
:100D30000BF019C00CF01AC00DF01BC00EF0A5ECA2
:100D400009F0FB0E0BC0DBFFFC0E0CC0DBFFFD0E41
:100D50000DC0DBFFFE0E0EC0DBFFFB0EDBCF18F07D
:100D6000FC0EDBCF19F0FD0EDBCF1AF0FE0EDBCF51
:100D70001BF0106A116AC80E126E420E136E18C074
:100D80000BF019C00CF01AC00DF01BC00EF038ECBF
:100D900009F0FB0E0BC0DBFFFC0E0CC0DBFFFD0EF1
:100DA0000DC0DBFFFE0E0EC0DBFFFB0EDBCF0BF03A
:100DB000FC0EDBCF0CF0FD0EDBCF0DF0FE0EDBCF1B
:100DC0000EF05AEC0AF0DE520CC0DEFF0DC0DDFF63
:100DD000DD52010EDBCFE6FF020EDBCFE6FF1AD9B4
:100DE000E552E552030EE15C02E2E16AE552E16E92
:100DF000E552E7CFD9FF1200D9CFE6FFE1CFD9FF07
:100E0000FD0EDBCF18F0FE0EDBCF19F0100E116EC9
:100E1000270E126E18C00CF019C00DF05EEC0BF02E
:100E20000CC018F00DC019F0300E18248C6ED9ECDF
:100E300001F0DFEC01F0FD0EDBCF18F0FE0EDBCF92
:100E400019F0100E116E270E126E18C00CF019C09A
:100E50000DF05EEC0BF008C018F009C019F0E80EB8
:100E6000116E030E126E18C00CF019C00DF05EEC7E
:100E70000BF00CC018F00DC019F0300E18248C6E59
:100E8000D9EC01F0DFEC01F0FD0EDBCF18F0FE0E27
:100E9000DBCF19F0100E116E270E126E18C00CF079
:100EA00019C00DF05EEC0BF008C018F009C019F085
:100EB000E80E116E030E126E18C00CF019C00DF082
:100EC0005EEC0BF008C018F009C019F0640E116E4A
:100ED000126A18C00CF019C00DF05EEC0BF00CC0DB
:100EE00018F00DC019F0300E18248C6ED9EC01F0FA
:100EF000DFEC01F0FD0EDBCF18F0FE0EDBCF19F0BA
:100F0000100E116E270E126E18C00CF019C00DF0E5
:100F10005EEC0BF008C018F009C019F0E80E116E75
:100F2000030E126E18C00CF019C00DF05EEC0BF041
:100F300008C018F009C019F0640E116E126A18C0CA
:100F40000CF019C00DF05EEC0BF008C018F009C0F1
:100F500019F00A0E116E126A18C00CF019C00DF0CB
:100F60005EEC0BF00CC018F00DC019F0300E182418
:100F70008C6ED9EC01F0DFEC01F0FD0EDBCF18F048
:100F8000FE0EDBCF19F0100E116E270E126E18C078
:100F90000CF019C00DF05EEC0BF008C018F009C0A1
:100FA00019F0E80E116E030E126E18C00CF019C085
:100FB0000DF05EEC0BF008C018F009C019F0640EDB
:100FC000116E126A18C00CF019C00DF05EEC0BF037
:100FD00008C018F009C019F00A0E116E126A18C084
:100FE0000CF019C00DF05EEC0BF008C018F009C051
:100FF00019F0300E18248C6ED9EC01F0DFEC01F002
:10100000E552E7CFD9FF12002E0E8C6ED9EC01F01D
:10101000DFEF01F0D9CFE6FFE1CFD9FFFD0EDBCF47
:1010200018F0FE0EDBCF19F00A0E116E126A18C00E
:101030000CF019C00DF05EEC0BF00CC018F00DC0F8
:1010400019F0300E18248C6ED9EC01F0DFEC01F0B1
:10105000FD0EDBCF18F0FE0EDBCF19F00A0E116E7D
:10106000126A18C00CF019C00DF05EEC0BF008C04D
:1010700018F009C019F0300E18248C6ED9EC01F06C
:10108000DFEC01F0E552E7CFD9FF1200D9CFE6FF40
:10109000E1CFD9FFE652DF6AFE0EDB50DF5C08E2EB
:1010A000140E8C6ED3EC01F0DFEC01F0DF2AF4D7E4
:1010B000E552E552E7CFD9FF1200D9CFE6FFE1CFE5
:1010C000D9FF030EE126010EDF6EDB6A020EDB6A3A
:1010D0002D0E0001945D03E1010E036E05D02B0E71
:1010E000945D02E1020E036EDF50EA6A940FE96E2E
:1010F000000EEA22EF5028E0DF50EA6A940FE96E12
:10110000000EEA22EF502D081BE0DF50EA6A940F30
:10111000E96E000EEA22EF502B0812E0DF50EA6A77
:10112000940FE96E000EEA22EF502F0809E0DF501D
:10113000EA6A940FE96E000EEA22EF502A0802E1F3
:10114000020EDB2ADF2AD0D7020EDB0403E1010EF8
:1011500003D002D0000E00D0186E030EE15C02E254
:10116000E16AE552E16E1850E552E7CFD9FF12006F
:10117000D9CFE6FFE1CFD9FFFE0EDB0406E12D0E4D
:101180008C6ED9EC01F0DFEC01F0E552E7CFD9FF2E
:101190001200F294D58EF2A4FED7F294D59E1200DE
:1011A000059E08D0059E0DAE05D00C6C0D1EE86A9C
:1011B0000D22058E0DC007F00CC006F0176A166AE6
:1011C0008E0E086E096AA5EF0AF0056AE1EC0AF0D6
:1011D000F9EC0AF005B689EF0AF005A205D005BAC8
:1011E00089EF0AF090EF0AF005BA9CEF0AF005A02B
:1011F00005D005B889EF0AF09CEF0AF005B890EF2A
:101200000AF0096A7F0E0E24086EE86A092213505C
:10121000085EE86A095A1A0E146E0E6A166A176A90
:10122000066A076A10500B5E11500C5A12500D5A84
:10123000000E0E5A09E710500B2611500C221250C6
:101240000D22000E0E2201D0168AD8900B360C36D5
:101250000D360E36D8901636173606360736142E4B
:10126000E1D70D500C100B10D8A4168AA5EF0AF088
:10127000056AE1EC0AF0F9EC0AF005B689EF0AF02C
:1012800005A205D005B889EF0AF090EF0AF005AA8B
:1012900005D005B089EF0AF090EF0AF005B002D052
:1012A00005A802D09CEF0AF0096A13500E24086EBC
:1012B000E86A09227E0E085EE86A095A166A176A09
:1012C000066A076A12500D02F4CF07F0F3CF06F05A
:1012D00011500D02F3501726F4500622000E07227B
:1012E00012500C02F3501726F4500622000E07226B
:1012F00010500D02F3501626F4501722000E06224D
:10130000072211500C02F3501626F4501722000E3B
:101310000622072212500B02F3501626F450172211
:10132000000E0622072210500C02F4501626000E62
:1013300017220622072211500B02F4501626000E27
:10134000172206220722A5EF0AF0137E056AE1ECB8
:101350000AF0F9EC0AF005B689EF0AF005A20AD006
:1013600005AA03D005BE89EF0AF005A495EF0AF09F
:1013700092EF0AF005AA05D005AC95EF0AF092EFBE
:101380000AF005A00AD005A808D005BE04D005A41F
:1013900002D09EEF0AF0A2EF0AF0166A096A135013
:1013A0000E5C156E10E30BC017F00CC006F00DC0FC
:1013B00007F00EC014F010C00BF011C00CF012C0FA
:1013C0000DF0053A09D010C017F011C006F012C098
:1013D00007F013C014F0156C059E05BC058E14C0F3
:1013E00008F005B0D1EF0AF01A0E1560D1EF0AF03F
:1013F000086A0E6A05A408D00B6C0C1E0D1E0E1E8A
:10140000E86A0C220D220E2205AC08D0176C061ECD
:10141000071E081EE86A0622072208220A6A1552D9
:1014200007E00E340D320C320B320A32152EF9D78A
:101430000B5017260C5006220D5007220E50082282
:101440000AC016F0059E08AE0BD0166C171E061EBD
:10145000071E081EE86A1722062207220822058EA8
:1014600008A006D0D8800732063217321632142A66
:1014700014C008F0A5EF0AF00CC016F00C501102D1
:10148000F4CF0BF0F3CF0AF00D501202F4CF0DF0B1
:10149000F3CF0CF01102F3500B26F4500C22E86A43
:1014A0000D2216501202F3500B26F4500C22E86A5B
:1014B0000D22000C056AE1EC0AF005B664EF0AF0B3
:1014C00005A20ED005B405D07F0E0D6EFF0E0C6E7A
:1014D0001FD0800E0D6E0C6A1BD00D6A0C6A18D0DE
:1014E00005B0FBD78F0E0E60EDD77E0E0E64F5D7DC
:1014F0008E0E0E5C05E0D8900D320C320E2AF8D715
:1015000005A406D00C6C0D1EE86A0D220DAEE5D7C1
:1015100012007F0E0E6EFF0E0D6E0C6E0B6E120023
:101520007F0E05BEFF0E0E6E02D07F0E0E6E800E79
:101530000D6E0C6A0B6AF3D705AE04D0800E0E6EEA
:101540000D6AF7D70E6A0D6AF4D707500610171008
:101550001610F8E009BEF0D707BE0CD008500910ED
:10156000EBE0D89016361736063607360806D8A0B0
:101570000906F2D70950D4E10828D2E016AE11D0FE
:101580007F0E161402E117A00CD0172AE86A062273
:10159000072207E3D880073206321732082A0828C4
:1015A000BFE00850C9E017C00BF006C00CF00734CC
:1015B0000D6E08300E6E0D320E9E05BE0E8E8FEF34
:1015C0000AF00D360E3602E30584057E06E105803D
:1015D0000E6A0D6A0C6A0B6A12000E2803E0D880AE
:1015E0000D321200D8900D3202E1058212000586FC
:1015F00012001236133602E3058C057E06E10588DB
:10160000136A126A116A106A1200132803E0D88064
:0E16100012321200D8901232EAE1058A12005E
:02161E000E0EAE
:10162000F66E000EF76E000EF86E00010900F55020
:10163000856F0900F550866F03E1856701D03DD0C5
:101640000900F550806F0900F550816F0900F550D1
:10165000826F09000900F550E96E0900F550EA6E45
:10166000090009000900F550836F0900F550846FE7
:1016700009000900F6CF87F0F7CF88F0F8CF89F09E
:1016800080C0F6FF81C0F7FF82C0F8FF00018353DE
:1016900002E1845307E00900F550EE6E8307F8E29B
:1016A0008407F9D787C0F6FF88C0F7FF89C0F8FF25
:0C16B00000018507000E865BBFD712000A
:0416BC00096A086A45
:1016C000100EE76ED8900C360D36083609361150DC
:1016D000085C1250095805E31150085E1250095A6F
:0816E0000C2AE72EF0D71200DE
:0816E800000EF36E00EE00F0AD
:1016F000060E01D81200EA6002D0EE6AFCD7F35061
:08170000E9601200EE6AFCD75B
:0817080015EE00F025EE00F0E3
:10171000F86A059C0FEC0BF003EC00F09DEC01F077
:04172000FBD71200E1
:0C172400096A080EE76ED8900D360936F1
:101730001250095C02E3096E0D2AE72EF7D712005A
:0417400000000000A5
:0A1744005F5F4552524F525F5F0095
:020000040030CA
:010003000EEE
:00000001FF
