:020000040000FA
:0600000080EF06F0120083
:020006001200E6
:0600080014EF00F01200ED
:02000E000200EE
:100010003B0D00008A0000000A000000380D0000BF
:080020000000000003000000D5
:08002800DACFE4FFE2CFDAFFBA
:10003000E9CFE4FFEACFE4FFF6CFE4FFF7CFE4FF38
:10004000F5CFE4FFF3CFE4FFF4CFE4FFFACFE4FF12
:1000500000EE03F0140EE80403E3EECFE4FFFBD759
:1000600000EE17F0080EE80403E3EECFE4FFFBD741
:10007000E652F2A021D18150816E070E015C1AE395
:1000800080B605D081B802D00FEC05F012D080B256
:1000900010D081B80ED03D0E8C6E0150012AEA6A54
:1000A000940FE96E000EEA223D0EEF6E93D998D9B7
:1000B000A2D900D180B044D081B80FD02B0E8C6E65
:1000C0000150012AEA6A940FE96E000EEA228CCFF1
:1000D000EFFF80D985D9022A32D081BA0FD02D0EF8
:1000E0008C6E0150012AEA6A940FE96E000EEA2232
:1000F0008CCFEFFF6FD974D9022A21D081BC0FD0E9
:100100002A0E8C6E0150012AEA6A940FE96E000EE5
:10011000EA228CCFEFFF5ED963D9022A10D081BECC
:100120000ED02F0E8C6E0150012AEA6A940FE96EF0
:10013000000EEA228CCFEFFF4DD952D9022ABAD055
:1001400080B241D081B80FD03D0E8C6E0150012A93
:10015000EA6A940FE96E000EEA223D0EEF6E3AD97C
:100160003FD949D92FD081BA0ED0330E8C6E0150B1
:10017000012AEA6A940FE96E000EEA22330EEF6E4E
:1001800029D92ED91FD081BC0ED0360E8C6E0150CD
:10019000012AEA6A940FE96E000EEA22360EEF6E2B
:1001A00019D91ED90FD081BE0DD0390E8C6E0150D9
:1001B000012AEA6A940FE96E000EEA22390EEF6E08
:1001C00009D90ED977D080B440D081B80ED0300E86
:1001D0008C6E0150012AEA6A940FE96E000EEA2241
:1001E000300EEF6EF7D8FCD82FD081BA0ED0320E79
:1001F0008C6E0150012AEA6A940FE96E000EEA2221
:10020000320EEF6EE7D8ECD81FD081BC0ED0350E81
:100210008C6E0150012AEA6A940FE96E000EEA2200
:10022000350EEF6ED7D8DCD80FD081BE0DD0380E8A
:100230008C6E0150012AEA6A940FE96E000EEA22E0
:10024000380EEF6EC7D8CCD835D080B633D081B851
:1002500002D0E5DB2FD081BA0ED0310E8C6E01506A
:10026000012AEA6A940FE96E000EEA22310EEF6E5F
:10027000B1D8B6D81FD081BC0ED0340E8C6E0150D0
:10028000012AEA6A940FE96E000EEA22340EEF6E3C
:10029000A1D8A6D80FD081BE0DD0370E8C6E0150DC
:1002A000012AEA6A940FE96E000EEA22370EEF6E19
:1002B00091D896D8F29024D09EA022D09E903C0E49
:1002C000CF6EB00ECE6E0050030A16E0010A0FE0AA
:1002D000030A08E0010A01E013D0010E006E7E0E51
:1002E000896E0ED0020E006E7D0E896E09D0030E4F
:1002F000006E7B0E896E04D0006A770E896E00D086
:10030000E55200EE1EF0080EE80403E3E5CFEDFF32
:10031000FBD700EE16F0140EE80403E3E5CFEDFF83
:10032000FBD7E5CFFAFFE5CFF4FFE5CFF3FFE5CF4D
:10033000F5FFE5CFF7FFE5CFF6FFE5CFEAFFE5CF25
:10034000E9FFE5CFDAFF1100F10E936E956AF80E22
:10035000946E700E926E070EC16E11D8F28EF28CF2
:10036000F2869D809E90F290140ECD6E3C0ECF6E64
:10037000B00ECE6E7E0E896ECD80FFD71200380E85
:100380008C6E22D809D8010E8C6E1ED805D80F0E9F
:100390008C6E1AD8CCEF01F0010ED56E0B0ED76E15
:1003A000BC0ED66EF294D58EF2A4FED7F294D59EF2
:1003B0001200480ED56EFD0ED66EF294D58EF2A4C4
:1003C000FED7F294D59E1200829082928284F1DF51
:1003D00082941200828082928284EBDF82941200E7
:1003E00082908282958E8294E4DF828483BEFBD7E2
:1003F0008294959E1200D9CFE6FFE1CFD9FF130E6C
:10040000E126020E025C02E31EDBFAD2A5DBDF6E00
:10041000070EDB6A080EDB6A090EDB6A0A0EDB6A6E
:100420000B0EDB6A0C0EDB6A0D0EDB6A0E0EDB6A4E
:100430000F0EDB6A100EDB6A0B0EDB50EA6A940FBC
:10044000E96E000EEA22EF5001E159D10B0EDB50AC
:10045000EA6A940FE96E000EEA22EF502B0848E09A
:100460000B0EDB50EA6A940FE96E000EEA22EF50A1
:100470002D083EE00B0EDB50EA6A940FE96E000E89
:10048000EA22EF502F0834E00B0EDB50EA6A940F9B
:10049000E96E000EEA22EF502A082AE00B0EDB502C
:1004A000EA6A940FE96E000EEA22EF503D0820E060
:1004B0000B0EDB50EA6A940FE96E000EEA22EF5051
:1004C000D00FE66ED950010F176EDACF18F00C0E70
:1004D000DBCFF3FFDB2AF350020D1750F324E96E54
:1004E0001850F420EA6EE552E750EE6EED6A04D142
:1004F0000C0EDB50030A11E0010A09E0030A01E0D7
:1005000012D0010EF36E110EF3CFDBFF0CD00A0EEA
:10051000F36E110EF3CFDBFF06D0640EF36E110EF7
:10052000F3CFDBFF00D0110EDB50F36E0D0EDBCFEF
:10053000F4FFF350F45C06E2110EDB50E76E0D0E93
:10054000E7CFDBFF120EDB6A0C0EDB50F36E120EF0
:10055000DBCFF4FFF350F45C3DE2110EDB501D6E77
:100560001E6AD950010F1B6EDACF1CF0120EDBCFC2
:10057000F3FFDB2AF350020D1B50F324E96E1C50ED
:10058000F420EA6EEECF19F0EFCF1AF019C00BF09D
:100590001AC00CF01DC010F01EC011F03CEC06F0AB
:1005A00009C017F00AC018F0D950070FE96EDACF6A
:1005B000EAFF1750EE261850ED220A0E176E17C0EC
:1005C00011F0110EDBCF0CF08EEC06F0110E0CC00A
:1005D000DBFFBAD7070EDBCF17F0080EDBCF18F022
:1005E000000E175C010E185808E3010EF36E0E0E94
:1005F000F3CFDBFF28DA83D079D02B0EDF5C10E15C
:10060000070EDBCF17F0080EDBCF18F0D950090F1B
:10061000E96EDACFEAFF1750EE261850ED2266D0C9
:100620002D0EDF5C63E1100EDB501AE1010EF36E5C
:10063000100EF3CFDBFF070EDBCF19F0080EDBCF78
:100640001AF0090EDB50195C176E0A0EDB501A58AF
:10065000186E090E17C0DBFF0A0E18C0DBFF46D06C
:10066000090EDBCF17F00A0EDBCF18F0070EDBCF39
:1006700019F0080EDBCF1AF01950175C1A501858F1
:1006800026E2010EF36E0F0EF3CFDBFF070EDBCF7A
:1006900019F0080EDBCF1AF0090EDB50195C176E4B
:1006A0000A0EDB501A58186E070E17C0DBFF080E33
:1006B00018C0DBFF070EDBCF0BF0080EDBCF0CF012
:1006C000090E0BC0DBFF0A0E0CC0DBFF0FD0070EBC
:1006D000DBCF17F0080EDBCF18F0D950090FE96E09
:1006E000DACFEAFF1750EE5E1850ED5A070EDB6ABC
:1006F000080EDB6A0C0EDB6A0B0EDB2A9DD60E0E93
:10070000DB5001E07DD186D90F0EDBCFE6FF0D0E69
:10071000DBCFE6FFD3D9E552E5520F0EDB5001E007
:10072000B8D00D0EDB0418E1090EDBCF17F00A0E6E
:10073000DBCF18F0106E116A17C00BF018C00CF068
:100740005AEC06F007C017F008C018F0300E172456
:100750008C6E40DE45DE9CD00D0EDB500A0833E186
:100760000D0EDB50196E1A6A090EDBCF0BF00A0E64
:10077000DBCF0CF019C010F01AC011F05AEC06F0E3
:100780000BC017F00CC018F0300E17248C6E22DE50
:1007900027DE0D0EDB50196E1A6A090EDBCF0BF047
:1007A0000A0EDBCF0CF019C010F01AC011F05AEC91
:1007B00006F007C017F008C018F0300E17248C6E32
:1007C00009DE0EDE65D00D0EDB50196E1A6A090EB9
:1007D000DBCF0BF00A0EDBCF0CF019C010F01AC003
:1007E00011F05AEC06F00BC017F00CC018F0300EE8
:1007F00017248C6EEFDDF4DD0D0EDB50196E1A6AD6
:10080000090EDBCF0BF00A0EDBCF0CF019C010F095
:100810001AC011F05AEC06F007C017F008C018F023
:100820000A0E106E116A17C00BF018C00CF05AECCB
:1008300006F00BC017F00CC018F0300E17248C6EA9
:10084000C9DDCEDD0D0EDB50196E1A6A090EDBCF45
:100850000BF00A0EDBCF0CF019C010F01AC011F02B
:100860005AEC06F007C017F008C018F00A0E106E18
:10087000116A17C00BF018C00CF05AEC06F007C054
:1008800017F008C018F0300E17248C6EA3DDA8DD19
:10089000B7D00D0EDB0418E1090EDBCF17F00A0EFE
:1008A000DBCF18F0106E116A17C00BF018C00CF0F7
:1008B0005AEC06F007C017F008C018F0300E1724E5
:1008C0008C6E88DD8DDD9CD00D0EDB500A0833E187
:1008D0000D0EDB50196E1A6A090EDBCF0BF00A0EF3
:1008E000DBCF0CF019C010F01AC011F05AEC06F072
:1008F0000BC017F00CC018F0300E17248C6E6ADD98
:100900006FDD0D0EDB50196E1A6A090EDBCF0BF08E
:100910000A0EDBCF0CF019C010F01AC011F05AEC1F
:1009200006F007C017F008C018F0300E17248C6EC0
:1009300051DD56DD65D00D0EDB50196E1A6A090EB9
:10094000DBCF0BF00A0EDBCF0CF019C010F01AC091
:1009500011F05AEC06F00BC017F00CC018F0300E76
:1009600017248C6E37DD3CDD0D0EDB50196E1A6AD4
:10097000090EDBCF0BF00A0EDBCF0CF019C010F024
:100980001AC011F05AEC06F007C017F008C018F0B2
:100990000A0E106E116A17C00BF018C00CF05AEC5A
:1009A00006F00BC017F00CC018F0300E17248C6E38
:1009B00011DD16DD0D0EDB50196E1A6A090EDBCF44
:1009C0000BF00A0EDBCF0CF019C010F01AC011F0BA
:1009D0005AEC06F007C017F008C018F00A0E106EA7
:1009E000116A17C00BF018C00CF05AEC06F007C0E3
:1009F00017F008C018F0300E17248C6EEBDCF0DC1A
:100A0000130EE15C02E2E16AE552E16EE552E7CFE6
:100A1000D9FF1200C00E8C6ED7DCF0EF01F0026A35
:100A2000010E8C6ED1DCB8DC016A090E015C09E2B2
:100A30000150012AEA6A940FE96E000EEA22EF6A79
:100A4000F4D7016A1200D9CFE6FFE1CFD9FFE65211
:100A5000DF6A1ED8DF50EA6A8A0FE96E000EEA22CA
:100A6000EF500CE0DF50DF2AEA6A8A0FE96E000ED1
:100A7000EA22EF508C6EAEDCB3DCECD78DDC8CDC84
:100A80008BDC8ADC05D8E552E552E7CFD9FF1200AE
:100A9000D9CFE6FFE1CFD9FFE652DF6ABBDF100E08
:100AA000DF5C06E2200E8C6E95DC9ADCDF2AF7D73D
:100AB000B1DFE552E552E7CFD9FF1200D9CFE6FF0B
:100AC000E1CFD9FF020EE126DF6A010EDB6AFD0EDF
:100AD000DB0414E1FE0EDB50640804E1DE520C0E70
:100AE000DD6E0BD0FE0EDB500A0804E1DE520D0E67
:100AF000DD6E03D0DE520E0EDD6E13D0FE0EDB5027
:100B0000640804E1DE520D0EDD6E0BD0FE0EDB50EC
:100B10000A0804E1DE520E0EDD6E03D0DE520F0E27
:100B2000DD6E010EDB50DF5C06E2140E8C6E4CDCD9
:100B300057DCDF2AF6D7FD0EDB0404E12D0E8C6EA8
:100B400049DC4EDC020EE15C02E2E16AE552E16E54
:100B5000E552E7CFD9FF1200D9CFE6FFE1CFD9FFA9
:100B6000E652DF6ADF50EA6A940FE96E000EEA226D
:100B7000EF502EE0DF50EA6A940FE96E000EEA2291
:100B8000EF502B081BE0DF50EA6A940FE96E000E6D
:100B9000EA22EF502D0812E0DF50EA6A940FE96E66
:100BA000000EEA22EF502F0809E0DF50EA6A940FA6
:100BB000E96E000EEA22EF502A0808E1DF50EA6AE7
:100BC000940FE96E000EEA22EF5002D0DF2ACAD756
:0A0BD000E552E552E7CFD9FF12000D
:060BDA000E0EF66E000E87
:100BE000F76E000EF86E00010900F550856F0900E0
:100BF000F550866F03E1856701D03DD00900F550BF
:100C0000806F0900F550816F0900F550826F09006F
:100C10000900F550E96E0900F550EA6E0900090077
:100C20000900F550836F0900F550846F0900090031
:100C3000F6CF87F0F7CF88F0F8CF89F080C0F6FFC5
:100C400081C0F7FF82C0F8FF0001835302E18453A3
:100C500007E00900F550EE6E8307F8E28407F9D744
:100C600087C0F6FF88C0F7FF89C0F8FF000185073D
:080C7000000E865BBFD71200E5
:080C78000BC015F00B50100237
:100C8000F4CF0AF0F3CF09F00C501102F4CF0CF0BE
:100C9000F3CF0BF01002F3500A26F4500B22E86A4F
:100CA0000C2215501102F3500A26F4500B22E86A68
:040CB0000C22000C06
:0C0CB400086A076A100EE76ED8900B3635
:100CC0000C36073608361050075C1150085805E3FB
:100CD0001050075E1150085A0B2AE72EF0D7120069
:100CE000000EF36E00EE00F0060E01D81200EA606E
:100CF00002D0EE6AFCD7F350E9601200EE6AFCD72E
:100D000015EE00F025EE00F0F86A049CEDEC05F01D
:0C0D100003EC00F0A4EC01F0FBD7120093
:040D1C00086A080E4B
:100D2000E76ED8900C3608361150085C02E3086E66
:080D30000C2AE72EF7D7120090
:030D3800000000B8
:050D3B005F5F4552520C
:050D40004F525F5F004F
:020000040030CA
:010003000EEE
:00000001FF
