:020000040000FA
:06000000D2EF09F012002E
:020006001200E6
:0600080014EF00F01200ED
:02000E000200EE
:10001000DF1300008A0000000A000000DC1300006B
:080020000000000003000000D5
:08002800DACFE4FFE2CFDAFFBA
:10003000E9CFE4FFEACFE4FFF6CFE4FFF7CFE4FF38
:10004000F5CFE4FFF3CFE4FFF4CFE4FFFACFE4FF12
:1000500000EE03F0140EE80403E3EECFE4FFFBD759
:1000600000EE17F0080EE80403E3EECFE4FFFBD741
:10007000E652F2A021D18150816E070E015C1AE395
:1000800080B605D081B802D038EC04F012D080B22E
:1000900010D081B80ED03D0E8C6E0150012AEA6A54
:1000A000940FE96E000EEA223D0EEF6E93D998D9B7
:1000B000A2D900D180B044D081B80FD02B0E8C6E65
:1000C0000150012AEA6A940FE96E000EEA228CCFF1
:1000D000EFFF80D985D9022A32D081BA0FD02D0EF8
:1000E0008C6E0150012AEA6A940FE96E000EEA2232
:1000F0008CCFEFFF6FD974D9022A21D081BC0FD0E9
:100100002A0E8C6E0150012AEA6A940FE96E000EE5
:10011000EA228CCFEFFF5ED963D9022A10D081BECC
:100120000ED02F0E8C6E0150012AEA6A940FE96EF0
:10013000000EEA228CCFEFFF4DD952D9022ABAD055
:1001400080B241D081B80FD03D0E8C6E0150012A93
:10015000EA6A940FE96E000EEA223D0EEF6E3AD97C
:100160003FD949D92FD081BA0ED0330E8C6E0150B1
:10017000012AEA6A940FE96E000EEA22330EEF6E4E
:1001800029D92ED91FD081BC0ED0360E8C6E0150CD
:10019000012AEA6A940FE96E000EEA22360EEF6E2B
:1001A00019D91ED90FD081BE0DD0390E8C6E0150D9
:1001B000012AEA6A940FE96E000EEA22390EEF6E08
:1001C00009D90ED977D080B440D081B80ED0300E86
:1001D0008C6E0150012AEA6A940FE96E000EEA2241
:1001E000300EEF6EF7D8FCD82FD081BA0ED0320E79
:1001F0008C6E0150012AEA6A940FE96E000EEA2221
:10020000320EEF6EE7D8ECD81FD081BC0ED0350E81
:100210008C6E0150012AEA6A940FE96E000EEA2200
:10022000350EEF6ED7D8DCD80FD081BE0DD0380E8A
:100230008C6E0150012AEA6A940FE96E000EEA22E0
:10024000380EEF6EC7D8CCD835D080B633D081B851
:1002500002D00EDB2FD081BA0ED0310E8C6E015041
:10026000012AEA6A940FE96E000EEA22310EEF6E5F
:10027000B1D8B6D81FD081BC0ED0340E8C6E0150D0
:10028000012AEA6A940FE96E000EEA22340EEF6E3C
:10029000A1D8A6D80FD081BE0DD0370E8C6E0150DC
:1002A000012AEA6A940FE96E000EEA22370EEF6E19
:1002B00091D896D8F29024D09EA022D09E903C0E49
:1002C000CF6EB00ECE6E0050030A16E0010A0FE0AA
:1002D000030A08E0010A01E013D0010E006E7E0E51
:1002E000896E0ED0020E006E7D0E896E09D0030E4F
:1002F000006E7B0E896E04D0006A770E896E00D086
:10030000E55200EE1EF0080EE80403E3E5CFEDFF32
:10031000FBD700EE16F0140EE80403E3E5CFEDFF83
:10032000FBD7E5CFFAFFE5CFF4FFE5CFF3FFE5CF4D
:10033000F5FFE5CFF7FFE5CFF6FFE5CFEAFFE5CF25
:10034000E9FFE5CFDAFF1100F10E936E956AF80E22
:10035000946E700E926E070EC16E11D8F28EF28CF2
:10036000F2869D809E90F290140ECD6E3C0ECF6E64
:10037000B00ECE6E7E0E896ECD80FFD71200380E85
:100380008C6E22D809D8010E8C6E1ED805D80F0E9F
:100390008C6E1AD8CCEF01F0010ED56E0B0ED76E15
:1003A000BC0ED66EF294D58EF2A4FED7F294D59EF2
:1003B0001200480ED56EFD0ED66EF294D58EF2A4C4
:1003C000FED7F294D59E1200829082928284F1DF51
:1003D00082941200828082928284EBDF82941200E7
:1003E00082908282958E8294E4DF828483BEFBD7E2
:1003F0008294959E1200D9CFE6FFE1CFD9FF170E68
:10040000E126020E025C02E347DA23D2A9DADF6EAC
:10041000070EDB6A080EDB6A090EDB6A0A0EDB6A6E
:100420000B0EDB6A0C0EDB6A0D0EDB6A0E0EDB6A4E
:100430000F0EDB6A120EDB6A130EDB6A140EDB6A28
:10044000150EDB6A160EDB6A0B0EDB50EA6A940FA0
:10045000E96E000EEA22EF5001E1D4D10B0EDB5021
:10046000EA6A940FE96E000EEA22EF502B0848E08A
:100470000B0EDB50EA6A940FE96E000EEA22EF5091
:100480002D083EE00B0EDB50EA6A940FE96E000E79
:10049000EA22EF502F0834E00B0EDB50EA6A940F8B
:1004A000E96E000EEA22EF502A082AE00B0EDB501C
:1004B000EA6A940FE96E000EEA22EF503D0820E050
:1004C0000B0EDB50EA6A940FE96E000EEA22EF5041
:1004D000D00FE66ED950010F176EDACF18F00C0E60
:1004E000DBCFF3FFDB2AF350020D1750F324E96E44
:1004F0001850F420EA6EE552E750EE6EED6A7FD1B7
:100500000C0EDB50030A11E0010A09E0030A01E0C6
:1005100012D0010EF36E100EF3CFDBFF0CD00A0EDB
:10052000F36E100EF3CFDBFF06D0640EF36E100EE9
:10053000F3CFDBFF00D0110EDB6A0C0EDB50F36E45
:10054000110EDBCFF4FFF350F45C3DE2100EDB50F4
:100550001D6E1E6AD950010F1B6EDACF1CF0110EF2
:10056000DBCFF3FFDB2AF350020D1B50F324E96EBF
:100570001C50F420EA6EEECF19F0EFCF1AF019C03C
:100580000BF01AC00CF01DC010F01EC011F08AEC68
:1005900008F009C017F00AC018F0D950070FE96E2B
:1005A000DACFEAFF1750EE261850ED220A0E176E2A
:1005B00017C011F0100EDBCF0CF0E0EC09F0100EBC
:1005C0000CC0DBFFBAD7070EDBCF17F0080EDBCF6E
:1005D00018F0000E175C010E185808E3010EF36EB8
:1005E0000D0EF3CFDBFF58D90DD103D12B0EDF5CFD
:1005F00010E1070EDBCF17F0080EDBCF18F0D95053
:10060000090FE96EDACFEAFF1750EE261850ED22F7
:10061000F0D02D0EDF5C64E10F0EDB501AE1010E0D
:10062000F36E0F0EF3CFDBFF070EDBCF19F0080ED2
:10063000DBCF1AF0090EDB50195C176E0A0EDB5087
:100640001A58186E090E17C0DBFF0A0E18C0DBFF20
:1006500046D0090EDBCF17F00A0EDBCF18F0070EDD
:10066000DBCF19F0080EDBCF1AF01950175C1A50C7
:10067000185826E2010EF36E0E0EF3CFDBFF070EC5
:10068000DBCF19F0080EDBCF1AF0090EDB50195C36
:10069000176E0A0EDB501A58186E070E17C0DBFFD4
:1006A000080E18C0DBFF070EDBCF0BF0080EDBCF08
:1006B0000CF0090E0BC0DBFF0A0E0CC0DBFF0FD0E5
:1006C000070EDBCF17F0080EDBCF18F0D950090F5B
:1006D000E96EDACFEAFF1750EE5E1850ED5A89D076
:1006E0002A0EDF5C2AE10F0EDB5012E1010EF36EE1
:1006F0000F0EF3CFDBFF070EDBCF0BF0080EDBCFC7
:100700000CF0090E0BC0DBFF0A0E0CC0DBFF14D08F
:10071000090EDBCF0BF00A0EDBCF0CF0070EDBCFA0
:1007200010F0080EDBCF11F08AEC08F0090E09C0BA
:10073000DBFF0A0E0AC0DBFF5CD0010EF36E120E67
:10074000F3CFDBFF0F0EDB501AE1010EF36E0F0E3D
:10075000F3CFDBFF070EDBCF0BF0080EDBCF0CF087
:100760001EEC07F0130E0AC0DBFF140E0BC0DBFFFC
:10077000150E0CC0DBFF160E0DC0DBFF3AD0130EBA
:10078000DBCF17F0140EDBCF18F0150EDBCF19F00E
:10079000160EDBCF1AF0070EDBCF0BF0080EDBCF07
:1007A0000CF01EEC07F00AC01BF00BC01CF00CC0D4
:1007B0001DF00DC01EF01BC00FF01CC010F01DC0BE
:1007C00011F01EC012F017C00AF018C00BF019C0CB
:1007D0000CF01AC00DF033EC07F0130E0AC0DBFF6B
:1007E000140E0BC0DBFF150E0CC0DBFF160E0DC088
:1007F000DBFF070EDB6A080EDB6A0C0EDB6A0B0EF2
:10080000DB2A22D6120EDB5012E1090EDBCFE6FF07
:100810000A0EDBCFE6FF0E0EDBCFE6FF0D0EDBCFC1
:10082000E6FFDFD8E552E552E552E55212D0D95045
:10083000130FE96EDACFEAFFEECFE6FFEECFE6FF69
:10084000EECFE6FFEFCFE6FFE6D8E552E552E55200
:10085000E552170EE15C02E2E16AE552E16EE55213
:10086000E7CFD9FF1200C00E8C6EAEDDF0EF01F0C5
:10087000026A010E8C6EA8DD8FDD016A090E015C33
:1008800009E20150012AEA6A940FE96E000EEA2299
:10089000EF6AF4D7016A1200D9CFE6FFE1CFD9FFA2
:1008A000E652DF6A1ED8DF50EA6A8A0FE96E000E50
:1008B000EA22EF500CE0DF50DF2AEA6A8A0FE96E85
:1008C000000EEA22EF508C6E85DD8ADDECD764DD08
:1008D00063DD62DD61DD05D8E552E552E7CFD9FF82
:1008E0001200D9CFE6FFE1CFD9FFE652DF6ABBDFC6
:1008F000100EDF5C06E2200E8C6E6CDD71DDDF2AEF
:10090000F7D7B1DFE552E552E7CFD9FF1200D9CFD3
:10091000E6FFE1CFD9FF020EE126DF6A010EDB6AB6
:10092000FE0EDB0404E1DE520A0EDD6E03D0DE5261
:100930000B0EDD6E010EDBCFE6FF69DAE552FE0E2F
:10094000DB0404E12D0E8C6E45DD4ADD020EE15C18
:1009500002E2E16AE552E16EE552E7CFD9FF12000B
:10096000D9CFE6FFE1CFD9FFE652DF6ADF50EA6A6E
:10097000940FE96E000EEA22EF502EE0DF50EA6A93
:10098000940FE96E000EEA22EF502B081BE0DF50B7
:10099000EA6A940FE96E000EEA22EF502D0812E089
:1009A000DF50EA6A940FE96E000EEA22EF502F083A
:1009B00009E0DF50EA6A940FE96E000EEA22EF5078
:1009C0002A0808E1DF50EA6A940FE96E000EEA2275
:1009D000EF5002D0DF2ACAD7E552E552E7CFD9FF60
:1009E0001200D9CFE6FFE1CFD9FFFE0EDB500FE1B9
:1009F0003ADFFD0EDBCFE6FF8ADFE552FB0EDBCFF1
:100A0000E6FFFC0EDBCFE6FFBAD8E552E552E55231
:100A1000E7CFD9FF1200D9CFE6FFE1CFD9FF030E10
:100A2000E126080EDF6EFB0EDBCF0AF0FC0EDBCFFB
:100A30000BF0FD0EDBCF0CF0FE0EDBCF0DF0A8ECC3
:100A400008F0DE520BC0DEFF0CC0DDFFDD520BDF15
:100A5000DFCFE6FFDCD9E552010EDBCFE6FF020E69
:100A6000DBCFE6FF8CD8E552E5528FD9FB0EDBCF0A
:100A700017F0FC0EDBCF18F0FD0EDBCF19F0FE0EE9
:100A8000DBCF1AF0010EDBCF0BF0020EDBCF0CF048
:100A90001EEC07F00AC01BF00BC01CF00CC01DF0D0
:100AA0000DC01EF01BC00FF01CC010F01DC011F0D7
:100AB0001EC012F017C00AF018C00BF019C00CF0DD
:100AC0001AC00DF0F3EC07F0FB0E0AC0DBFFFC0EC2
:100AD0000BC0DBFFFD0E0CC0DBFFFE0E0DC0DBFF0D
:100AE000FB0EDBCF17F0FC0EDBCF18F0FD0EDBCFDB
:100AF00019F0FE0EDBCF1AF00F6A106AC80E116EE5
:100B0000420E126E17C00AF018C00BF019C00CF09C
:100B10001AC00DF086EC07F0FB0E0AC0DBFFFC0EDE
:100B20000BC0DBFFFD0E0CC0DBFFFE0E0DC0DBFFBC
:100B3000FB0EDBCF0AF0FC0EDBCF0BF0FD0EDBCFA4
:100B40000CF0FE0EDBCF0DF0A8EC08F0DE520BC06F
:100B5000DEFF0CC0DDFFDD52010EDBCFE6FF020E33
:100B6000DBCFE6FF18D9E552E552030EE15C02E265
:100B7000E16AE552E16EE552E7CFD9FF1200D9CF25
:100B8000E6FFE1CFD9FFFD0EDBCF17F0FE0EDBCF86
:100B900018F0100E106E270E116E17C00BF018C053
:100BA0000CF0ACEC09F00BC017F00CC018F0300ED4
:100BB00017248C6E0FDC14DCFD0EDBCF17F0FE0E5D
:100BC000DBCF18F0100E106E270E116E17C00BF051
:100BD00018C00CF0ACEC09F007C017F008C018F012
:100BE000E80E106E030E116E17C00BF018C00CF05B
:100BF000ACEC09F00BC017F00CC018F0300E172445
:100C00008C6EEAEC01F0F0EC01F0FD0EDBCF17F09A
:100C1000FE0EDBCF18F0100E106E270E116E17C0EF
:100C20000BF018C00CF0ACEC09F007C017F008C0CE
:100C300018F0E80E106E030E116E17C00BF018C0FE
:100C40000CF0ACEC09F007C017F008C018F0640E07
:100C5000106E116A17C00BF018C00CF0ACEC09F064
:100C60000BC017F00CC018F0300E17248C6EEAEC95
:100C700001F0F0EC01F0FD0EDBCF17F0FE0EDBCF44
:100C800018F0100E106E270E116E17C00BF018C062
:100C90000CF0ACEC09F007C017F008C018F0E80E33
:100CA000106E030E116E17C00BF018C00CF0ACECF8
:100CB00009F007C017F008C018F0640E106E116A32
:100CC00017C00BF018C00CF0ACEC09F007C017F01F
:100CD00008C018F00A0E106E116A17C00BF018C089
:100CE0000CF0ACEC09F00BC017F00CC018F0300E93
:100CF00017248C6EEAEC01F0F0EC01F0FD0EDBCF76
:100D000017F0FE0EDBCF18F0100E106E270E116ECE
:100D100017C00BF018C00CF0ACEC09F007C017F0CE
:100D200008C018F0E80E106E030E116E17C00BF01D
:100D300018C00CF0ACEC09F007C017F008C018F0B0
:100D4000640E106E116A17C00BF018C00CF0ACECFA
:100D500009F007C017F008C018F00A0E106E116AEB
:100D600017C00BF018C00CF0ACEC09F007C017F07E
:100D700008C018F0300E17248C6EEAEC01F0F0EC8D
:100D800001F0E552E7CFD9FF12002E0E8C6EEAEC8F
:100D900001F0F0EF01F0D9CFE6FFE1CFD9FFFD0E72
:100DA000DBCF17F0FE0EDBCF18F00A0E106E116AC3
:100DB00017C00BF018C00CF0ACEC09F00BC017F02A
:100DC0000CC018F0300E17248C6EEAEC01F0F0EC39
:100DD00001F0FD0EDBCF17F0FE0EDBCF18F00A0E90
:100DE000106E116A17C00BF018C00CF0ACEC09F0D3
:100DF00007C017F008C018F0300E17248C6EEAEC0C
:100E000001F0F0EC01F0E552E7CFD9FF1200D9CFA5
:100E1000E6FFE1CFD9FFE652DF6AFE0EDB50DF5C72
:100E200008E2140E8C6EE4EC01F0F0EC01F0DF2A25
:0C0E3000F4D7E552E552E7CFD9FF1200DD
:040E3C00049E08D038
:100E4000049E0CAE05D00B6C0C1EE86A0C22048EBE
:100E50000CC006F00BC005F0166A156A8E0E076E00
:100E6000086AF3EF08F0046A2FEC09F047EC09F088
:100E700004B6D7EF08F004A205D004BAD7EF08F003
:100E8000DEEF08F004BAEAEF08F004A005D004B8D9
:100E9000D7EF08F0EAEF08F004B8DEEF08F0086AD0
:100EA0007F0E0D24076EE86A08221250075EE86A7A
:100EB000085A1A0E136E0D6A156A166A056A066AD2
:100EC0000F500A5E10500B5A11500C5A000E0D5A5A
:100ED00009E70F500A2610500B2211500C22000E69
:100EE0000D2201D0158AD8900A360B360C360D36F5
:100EF000D8901536163605360636132EE1D70C5027
:100F00000B100A10D8A4158AF3EF08F0046A2FEC2E
:100F100009F047EC09F004B6D7EF08F004A205D0B9
:100F200004B8D7EF08F0DEEF08F004AA05D004B04B
:100F3000D7EF08F0DEEF08F004B002D004A802D02A
:100F4000EAEF08F0086A12500D24076EE86A0822DA
:100F50007E0E075EE86A085A156A166A056A066A0E
:100F600011500C02F4CF06F0F3CF05F010500C0234
:100F7000F3501626F4500522000E062211500B02E3
:100F8000F3501626F4500522000E06220F500C02D4
:100F9000F3501526F4501622000E0522062210509A
:100FA0000B02F3501526F4501622000E05220622DD
:100FB00011500A02F3501526F4501622000E052295
:100FC00006220F500B02F4501526000E16220522A1
:100FD000062210500A02F4501526000E1622052291
:100FE0000622F3EF08F0127E046A2FEC09F047ECBA
:100FF00009F004B6D7EF08F004A20AD004AA03D07F
:1010000004BED7EF08F004A4E3EF08F0E0EF08F027
:1010100004AA05D004ACE3EF08F0E0EF08F004A068
:101020000AD004A808D004BE04D004A402D0ECEF77
:1010300008F0F0EF08F0156A086A12500D5C146EA3
:1010400010E30AC016F00BC005F00CC006F00DC08E
:1010500013F00FC00AF010C00BF011C00CF0043AEE
:1010600009D00FC016F010C005F011C006F012C074
:1010700013F0146C049E04BC048E13C007F004B07B
:101080001FEF09F01A0E14601FEF09F0076A0D6ACE
:1010900004A408D00A6C0B1E0C1E0D1EE86A0B225D
:1010A0000C220D2204AC08D0166C051E061E071E6D
:1010B000E86A052206220722096A145207E00D3465
:1010C0000C320B320A320932142EF9D70A50162686
:1010D0000B5005220C5006220D50072209C015F0B6
:1010E000049E07AE0BD0156C161E051E061E071EAD
:1010F000E86A1622052206220722048E07A006D0DF
:10110000D8800632053216321532132A13C007F082
:10111000F3EF08F00BC015F00B501002F4CF0AF0FB
:10112000F3CF09F00C501102F4CF0CF0F3CF0BF019
:101130001002F3500A26F4500B22E86A0C221550D4
:101140001102F3500A26F4500B22E86A0C22000C1C
:10115000046A2FEC09F004B6B2EF08F004A20ED036
:1011600004B405D07F0E0C6EFF0E0B6E1FD0800EE8
:101170000C6E0B6A1BD00C6A0B6A18D004B0FBD73C
:101180008F0E0D60EDD77E0E0D64F5D78E0E0D5CC3
:1011900005E0D8900C320B320D2AF8D704A406D003
:1011A0000B6C0C1EE86A0C220CAEE5D712007F0E09
:1011B0000D6EFF0E0C6E0B6E0A6E12007F0E04BEDB
:1011C000FF0E0D6E02D07F0E0D6E800E0C6E0B6A40
:1011D0000A6AF3D704AE04D0800E0D6E0C6AF7D7FE
:1011E0000D6A0C6AF4D70650051016101510F8E0B9
:1011F00008BEF0D706BE0CD007500810EBE0D89020
:1012000015361636053606360706D8A00806F2D774
:101210000850D4E10728D2E015AE11D07F0E151486
:1012200002E116A00CD0162AE86A0522062207E37E
:10123000D880063205321632072A0728BFE0075049
:10124000C9E016C00AF005C00BF006340C6E07307A
:101250000D6E0C320D9E04BE0D8EDDEF08F00C36C7
:101260000D3602E30484047E06E104800D6A0C6AF4
:101270000B6A0A6A12000D2803E0D8800C321200B3
:10128000D8900C3202E1048212000486120011365A
:10129000123602E3048C047E06E10488126A116AA5
:1012A000106A0F6A1200122803E0D880113212006F
:0A12B000D8901132EAE1048A12001E
:0612BA000E0EF66E000EA0
:1012C000F76E000EF86E00010900F550856F0900F9
:1012D000F550866F03E1856701D03DD00900F550D8
:1012E000806F0900F550816F0900F550826F090089
:1012F0000900F550E96E0900F550EA6E0900090091
:101300000900F550836F0900F550846F090009004A
:10131000F6CF87F0F7CF88F0F8CF89F080C0F6FFDE
:1013200081C0F7FF82C0F8FF0001835302E18453BC
:1013300007E00900F550EE6E8307F8E28407F9D75D
:1013400087C0F6FF88C0F7FF89C0F8FF0001850756
:08135000000E865BBFD71200FE
:08135800086A076A100EE76E37
:10136000D8900B360C36073608361050075C1150F3
:10137000085805E31050075E1150085A0B2AE72E53
:04138000F0D7120090
:0C138400000EF36E00EE00F0060E01D823
:101390001200EA6002D0EE6AFCD7F350E960120056
:0413A000EE6AFCD71E
:0C13A40015EE00F025EE00F0F86A049C45
:1013B0005DEC09F003EC00F0A4EC01F0FBD71200A7
:1013C000086A080EE76ED8900C3608361150085C93
:0C13D00002E3086E0C2AE72EF7D712008B
:0313DC000000000E
:0113DF005FAE
:0913E0005F4552524F525F5F005D
:020000040030CA
:010003000EEE
:00000001FF
