:020000040000FA
:0600000053EF09F01200AD
:020006001200E6
:060008000EEF00F01200F3
:02000E000100EF
:0C001000C2120000960100000400000075
:04001C00DACFE4FF54
:10002000E2CFDAFFE9CFE4FFEACFE4FFF6CFE4FF67
:10003000F7CFE4FFF5CFE4FFF3CFE4FFF4CFE4FF25
:10004000FACFE4FF00EE00F0140EE80403E3EECF75
:10005000E4FFFBD700EE14F00C0EE80403E3EECF50
:10006000E4FFFBD7E652F2A001D18150816E80B04F
:1000700044D081B80FD02B0E8C6E01019651962B77
:10008000EA6A000FE96E010EEA228CCFEFFF9BD9DE
:10009000A0D932D081BA0FD02D0E8C6E01019651AD
:1000A000962BEA6A000FE96E010EEA228CCFEFFF71
:1000B0008AD98FD921D081BC0FD02A0E8C6E010134
:1000C0009651962BEA6A000FE96E010EEA228CCF58
:1000D000EFFF79D97ED910D081BE0ED02F0E8C6E55
:1000E00001019651962BEA6A000FE96E010EEA2291
:1000F0008CCFEFFF68D96DD9B7D080B237D081B837
:1001000002D07ED932D081BA0FD0330E8C6E01016D
:100110009651962BEA6A000FE96E010EEA22330E21
:10012000EF6E51D956D921D081BC0FD0360E8C6ECE
:1001300001019651962BEA6A000FE96E010EEA2240
:10014000360EEF6E40D945D910D081BE0ED0390E93
:100150008C6E01019651962BEA6A000FE96E010E32
:10016000EA22390EEF6E2FD934D97ED080B444D034
:1001700081B80FD0300E8C6E01019651962BEA6A31
:10018000000FE96E010EEA22300EEF6E1CD921D964
:1001900032D081BA0FD0320E8C6E01019651962B5F
:1001A000EA6A000FE96E010EEA22320EEF6E0BD9F9
:1001B00010D921D081BC0FD0350E8C6E0101965123
:1001C000962BEA6A000FE96E010EEA22350EEF6EF9
:1001D000FAD8FFD810D081BE0ED0380E8C6E010137
:1001E0009651962BEA6A000FE96E010EEA22380E4C
:1001F000EF6EE9D8EED838D080B636D081B802D0CC
:10020000FAD832D081BA0FD0310E8C6E01019651DE
:10021000962BEA6A000FE96E010EEA22310EEF6EAC
:10022000D2D8D7D821D081BC0FD0340E8C6E01012A
:100230009651962BEA6A000FE96E010EEA22340EFF
:10024000EF6EC1D8C6D810D081BE0ED0370E8C6EDE
:1002500001019651962BEA6A000FE96E010EEA221F
:10026000370EEF6EB0D8B5D8F29049D0F2A210D0C8
:10027000F292280E8C6E01019651962BEA6A000FBD
:10028000E96E010EEA22280EEF6E9DD8A2D837D073
:10029000F0A010D0F090290E8C6E01019651962B93
:1002A000EA6A000FE96E010EEA22290EEF6E8BD882
:1002B00090D825D09EA023D09E903C0ECF6EB00E3D
:1002C000CE6E01019751030A16E0010A0FE0030AFE
:1002D00008E0010A01E013D0010E976F7E0E896ECF
:1002E0000ED0020E976F7D0E896E09D0030E976FA8
:1002F0007B0E896E04D0976B770E896E00D0E55225
:1003000000EE1FF00C0EE80403E3E5CFEDFFFBD792
:1003100000EE13F0140EE80403E3E5CFEDFFFBD786
:10032000E5CFFAFFE5CFF4FFE5CFF3FFE5CFF5FF2B
:10033000E5CFF7FFE5CFF6FFE5CFEAFFE5CFE9FF31
:10034000E5CFDAFF1100F00E936E956AF80E946E09
:10035000700E926E070EC16E15D8F28EF28CF28678
:100360009D80F288F086F090F2929E90F290140EAA
:10037000CD6E3C0ECF6EB00ECE6E7E0E896ECD80F1
:10038000FFD71200380E8C6E18D809D8010E8C6E6B
:1003900014D805D80F0E8C6E10D8CFEF01F0010ED7
:1003A000D56E0B0ED76EBC0ED66EF4EF01F0480E74
:1003B000D56EFD0ED66EF4EF01F0829082928284AB
:1003C000F6DF82941200828082928284F0DF82942F
:1003D000120082908282958E8294E9DF828483BEAD
:1003E000FBD78294959E1200F294D58EF2A4FED78C
:1003F000F294D59E1200010E8C6EDFDFCFEF01F07C
:10040000D9CFE6FFE1CFD9FF090EE126DF6ADE5240
:10041000010EDD6E020EDB6ADF50EA6A000FE96E44
:10042000010EEA22EF503AE0DF50EA6A000FE96E6F
:10043000010EEA22EF5028080BE1DF50EA6A000FB4
:10044000E96E010EEA22EF50E66EE6D8E55224D0BE
:10045000DF50EA6A000FE96E010EEA22EF50290828
:100460001BE1FF0E0101995D04E1010EDB6A16D06C
:1004700013D0E8D8E76E020EE7CFDBFFDB50290888
:100480000BE1DF50EA6A000FE96E010EEA22EF503D
:10049000290802E1010EDB6ADF2ABED70101993586
:1004A00002E2010EDB6A010EDB5001E1D9D8010E38
:1004B000DB5001E1A7D0030EDB6A040EDB6A050EF8
:1004C000DB6A060EDB6A070EDB6A080EDB6A3ED9C2
:1004D00010D95CDA030E04C0DBFF040E05C0DBFF9D
:1004E000050E06C0DBFF060E07C0DBFF030EDBCFE9
:1004F00005F0040EDBCF06F0050EDBCF07F0060E8D
:10050000DBCF08F03FEC08F0070E06C0DBFF080E5B
:1005100007C0DBFF070EDBCF14F0080EDBCF15F0B2
:10052000300E14248C6E4FDF54DF2E0E8C6E4BDF9A
:1005300050DF030EDBCF18F0040EDBCF19F0050EF1
:10054000DBCF1AF0060EDBCF1BF0070EDBCF06F079
:10055000080EDBCF07F0D5EC06F005C01CF006C096
:100560001DF007C01EF008C01FF01CC00AF01DC01F
:100570000BF01EC00CF01FC00DF018C005F019C024
:1005800006F01AC007F01BC008F0E8EC06F005C042
:1005900014F006C015F007C016F008C017F00A6A7C
:1005A0000B6A200E0C6E410E0D6E14C005F015C0C6
:1005B00006F016C007F017C008F0D2EC07F0030EE3
:1005C00005C0DBFF040E06C0DBFF050E07C0DBFF26
:1005D000060E08C0DBFF030EDBCF05F0040EDBCFF9
:1005E00006F0050EDBCF07F0060EDBCF08F03FEC80
:1005F00008F006C014F007C015F0300E14248C6EFD
:10060000E2DEE7DE090EE15C02E2E16AE552E16E5C
:10061000E552E7CFD9FF1200D9CFE6FFE1CFD9FFEE
:100620000101992B99C1E9FFEA6AE9BEEA68140E53
:10063000E926010EEA22FE0EDBCFEFFFE552E7CFFF
:10064000D9FF1200010199519907E96EEA6AE9BEE2
:10065000EA68140EE926010EEA22EF5000D01200DB
:10066000D9CFE6FFE1CFD9FF090EE126D9CFE9FFC7
:10067000DACFEAFF5F0EEE6E450EEE6E520EEE6EB4
:10068000EE6E4F0EEE6E520EEE6E5F0EEE6EEE6A78
:10069000080EDB6A2ED8D9CF14F0DACF15F0080E89
:1006A000DB500F011424E96E000E1520EA6EEF50A6
:1006B00013E0D9CF14F0DACF15F0080EDBCFF3FF3B
:1006C000DB2AF3501424E96E000E1520EA6EEF5079
:1006D0008C6E79DE7EDEDFD762DE61DE0FD8090E3A
:1006E000E15C02E2E16AE552E16EE552E7CFD9FF53
:1006F0001200C00E8C6E61DEE9EF01F0D9CFE6FF8B
:10070000E1CFD9FFE652DF6AF4DF100EDF5C06E2CC
:10071000200E8C6E58DE5DDEDF2AF7D70DD8DF6A3B
:1007200001019651DF5C03E20CD8DF2AF9D7E552CC
:10073000E552E7CFD9FF1200800E8C6E3EDEE9EF66
:1007400001F0140E8C6E39DEE9EF01F0D9CFE6FF2F
:10075000E1CFD9FFE652DF6A01019969DF50EA6A09
:10076000000FE96E010EEA22EF504DE0DF50EA6A19
:10077000000FE96E010EEA22EF5028082DE0DF504D
:10078000EA6A000FE96E010EEA22EF50290824E020
:10079000DF50EA6A000FE96E010EEA22EF502B08E3
:1007A0001BE0DF50EA6A000FE96E010EEA22EF500B
:1007B0002D0812E0DF50EA6A000FE96E010EEA220E
:1007C000EF502A0809E0DF50EA6A000FE96E010ED7
:1007D000EA22EF502F080BE1DF50EA6A000FE96EC2
:1007E000010EEA22EF50E66E1CD8E5520AD0DF5027
:1007F000EA6A000FE96E010EEA22EF50E66EB3D806
:10080000E552DF2AABD7FF0E0101995D05E01ADF43
:10081000E66EA9D8E552F7D7E552E552E7CFD9FF02
:100820001200D9CFE6FFE1CFD9FFFE0EDB5028083A
:100830000FE10101992B99C1E9FFEA6AE9BEEA6873
:10084000140EE926010EEA22FE0EDBCFEFFF87D061
:10085000FE0EDB502A0804E0FE0EDB502F083CE1C0
:1008600099C1E9FFEA6AE9BEEA68140EE926010EB9
:10087000EA22EF502B0821E099C1E9FFEA6AE9BEBC
:10088000EA68140EE926010EEA22EF502D0815E061
:1008900099C1E9FFEA6AE9BEEA68140EE926010E89
:1008A000EA22EF50280809E0FF0E0101995D05E0FA
:1008B000C9DEE66E58D8E552D3D70101992B99C10C
:1008C000E9FFEA6AE9BEEA68140EE926010EEA22A7
:1008D000FE0EDBCFEFFF43D0FE0EDB502B0804E013
:1008E000FE0EDB502D0824E199C1E9FFEA6AE9BE5A
:1008F000EA68140EE926010EEA22EF50280809E002
:10090000FF0E0101995D05E09DDEE66E2CD8E552F3
:10091000EBD70101992B99C1E9FFEA6AE9BEEA68C0
:10092000140EE926010EEA22FE0EDBCFEFFF17D0F0
:10093000FE0EDB50290813E199C1E9FFEA6AE9BE1E
:10094000EA68140EE926010EEA22EF50280805E0B5
:1009500079DEE66E08D8E552EFD701019907E55236
:10096000E7CFD9FF1200D9CFE6FFE1CFD9FF0101D0
:100970009851982BEA6A280FE96E010EEA22FE0EC2
:10098000DBCFEFFFE552E7CFD9FF1200D9CFE6FF6B
:10099000E1CFD9FF090EE126DF6A010EDB6A020E04
:1009A000DB6A030EDB6A040EDB6A050EDB6A060EE9
:1009B000DB6A070EDB6A080EDB6A01019969DF500A
:1009C000EA6A280FE96E010EEA22EF5001E1AFD189
:1009D000DF50EA6A280FE96E010EEA22EF502B0879
:1009E0004AE0DF50EA6A280FE96E010EEA22EF5072
:1009F0002D0841E0DF50EA6A280FE96E010EEA2275
:100A0000EF502F0838E0DF50EA6A280FE96E010E38
:100A1000EA22EF502A082FE0DF50EA6A280FE96E39
:100A2000010EEA22EF50D00F186E18C007F0C2EC8A
:100A300006F005C014F006C015F007C016F008C097
:100A400017F00101992B99C1E9FFEA6AE9BEEA684A
:100A5000D890E936EA36D890E936EA363C0EE926EF
:100A6000010EEA2214C0EEFF15C0EEFF16C0EEFF25
:100A700017C0EEFF5AD199519907E96EEA6AE9BEAB
:100A8000EA68D890E936EA36D890E936EA363C0E7C
:100A9000E926010EEA22010EEECFDBFF020EEECFB9
:100AA000DBFF030EEECFDBFF040EEECFDBFF995131
:100AB0009907E96EEA6AE9BEEA68D890E936EA364B
:100AC000D890E936EA363C0EE926010EEA22050EF8
:100AD000EECFDBFF060EEECFDBFF070EEECFDBFF28
:100AE000080EEECFDBFFDF50EA6A280FE96E010E39
:100AF000EA22EF502A0A01E1DCD0050A01E19DD08B
:100B0000020A4FE0060A01E010D1050EDBCF18F013
:100B1000060EDBCF19F0070EDBCF1AF0080EDBCF85
:100B20001BF0010EDBCF1CF0020EDBCF1DF0030E1D
:100B3000DBCF1EF0040EDBCF1FF01CC00AF01DC07F
:100B40000BF01EC00CF01FC00DF018C005F019C04E
:100B500006F01AC007F01BC008F0E9EC06F005C06B
:100B600014F006C015F007C016F008C017F0010118
:100B7000992B99C1E9FFEA6AE9BEEA68D890E9369B
:100B8000EA36D890E936EA363C0EE926010EEA222A
:100B900014C0EEFF15C0EEFF16C0EEFF17C0EEFF4B
:100BA000C4D0050EDBCF18F0060EDBCF19F0070E10
:100BB000DBCF1AF0080EDBCF1BF0010EDBCF1CF0F1
:100BC000020EDBCF1DF0030EDBCF1EF0040EDBCFD9
:100BD0001FF01CC00AF01DC00BF01EC00CF01FC09F
:100BE0000DF018C005F019C006F01AC007F01BC0C0
:100BF00008F0E8EC06F005C014F006C015F007C0D8
:100C000016F008C017F00101992B99C1E9FFEA6AB3
:100C1000E9BEEA68D890E936EA36D890E936EA368D
:100C20003C0EE926010EEA2214C0EEFF15C0EEFFCD
:100C300016C0EEFF17C0EEFF78D0050EDBCF05F033
:100C4000060EDBCF06F0070EDBCF07F0080EDBCF7A
:100C500008F0010EDBCF0AF0020EDBCF0BF0030E23
:100C6000DBCF0CF0040EDBCF0DF07FEC07F005C0FE
:100C700014F006C015F007C016F008C017F0010107
:100C8000992B99C1E9FFEA6AE9BEEA68D890E9368A
:100C9000EA36D890E936EA363C0EE926010EEA2219
:100CA00014C0EEFF15C0EEFF16C0EEFF17C0EEFF3A
:100CB0003CD0050EDBCF05F0060EDBCF06F0070EAD
:100CC000DBCF07F0080EDBCF08F0010EDBCF0AF018
:100CD000020EDBCF0BF0030EDBCF0CF0040EDBCFEC
:100CE0000DF0D2EC07F005C014F006C015F007C0F7
:100CF00016F008C017F00101992B99C1E9FFEA6AC3
:100D0000E9BEEA68D890E936EA36D890E936EA369C
:100D10003C0EE926010EEA2214C0EEFF15C0EEFFDC
:100D200016C0EEFF17C0EEFF00D0DF2A48D699515B
:100D30009907E96EEA6AE9BEEA68D890E936EA36C8
:100D4000D890E936EA363C0EE926010EEA22EECFCB
:100D500014F0EECF15F0EECF16F0EFCF17F014C071
:100D600004F015C005F016C006F017C007F0090E14
:100D7000E15C03E200D0E16AE552E16EE552E7CFC3
:040D8000D9FF120085
:0C0D84000F9E05D00F9E07AE02D0076C3A
:100D90000F8E07C001F0006A136A126A860E026E97
:100DA000036A8AEF08F00F9E08D00F9E07AE05D0A9
:100DB000066C071EE86A07220F8E07C001F006C006
:100DC00000F0136A126A8E0E026E036A8AEF08F050
:100DD0000D7E0F6AC6EC08F0DEEC08F00FB66EEF81
:100DE00008F00FA20AD00FAA03D00FBE6EEF08F0D2
:100DF0000FA47AEF08F077EF08F00FAA05D00FAC38
:100E00007AEF08F077EF08F00FA00AD00FA808D00B
:100E10000FBE04D00FA402D083EF08F087EF08F0D4
:100E2000126A036A0D50085C116E10E305C013F0DE
:100E300006C000F007C001F008C010F00AC005F0BD
:100E40000BC006F00CC007F00F3A09D00AC013F02F
:100E50000BC000F00CC001F00DC010F0116C0F9E23
:100E60000FBC0F8E10C002F00FB0B6EF08F01A0ED4
:100E70001160B6EF08F0026A086A0FA408D0056C8A
:100E8000061E071E081EE86A0622072208220FAC6B
:100E900008D0136C001E011E021EE86A0022012207
:100EA0000222046A115207E0083407320632053282
:100EB0000432112EF9D70550132606500022075090
:100EC00001220850022204C012F00F9E02AE0BD085
:100ED000126C131E001E011E021EE86A132200225D
:100EE000012202220F8E02A006D0D88001320032E9
:100EF00013321232102A10C002F08AEF08F00F6A83
:100F0000C6EC08F0DEEC08F00FB66EEF08F00FA2AA
:100F100005D00FBA6EEF08F075EF08F00FBA81EF49
:100F200008F00FA005D00FB86EEF08F081EF08F0C1
:100F30000FB875EF08F0036A7F0E0824026EE86AA6
:100F400003220D50025EE86A035A1A0E106E086AF8
:100F5000126A136A006A016A0A50055E0B50065A4B
:100F60000C50075A000E085A09E70A5005260B5084
:100F700006220C500722000E082201D0128AD890B7
:100F80000536063607360836D89012361336003640
:100F90000136102EE1D7075006100510D8A4128A8A
:100FA0008AEF08F00F6AC6EC08F0DEEC08F00FB626
:100FB0006EEF08F00FA205D00FB86EEF08F075EFD6
:100FC00008F00FAA05D00FB06EEF08F075EF08F02B
:100FD0000FB002D00FA802D081EF08F0036A0D50C5
:100FE0000824026EE86A03227E0E025EE86A035A53
:100FF000126A136A006A016A0C500702F4CF01F00A
:10100000F3CF00F00B500702F3501326F4500022E8
:10101000000E01220C500602F3501326F450002259
:10102000000E01220A500702F3501226F450132238
:10103000000E002201220B500602F3501226F4503B
:101040001322000E002201220C500502F35012263A
:10105000F4501322000E002201220A500602F4501E
:101060001226000E1322002201220B500502F4501A
:101070001226000E1322002201228AEF08F00F6AC6
:10108000C6EC08F00FB649EF08F00FA20ED00FB46F
:1010900005D07F0E076EFF0E066E1FD0800E076E06
:1010A000066A1BD0076A066A18D00FB0FBD78F0EEE
:1010B0000860EDD77E0E0864F5D78E0E085C05E05B
:1010C000D89007320632082AF8D70FA406D0066C4B
:1010D000071EE86A072207AEE5D712007F0E086EEA
:1010E000FF0E076E066E056E12007F0E0FBEFF0E1E
:1010F000086E02D07F0E086E800E076E066A056AC3
:10110000F3D70FAE04D0800E086E076AF7D7086ACF
:10111000076AF4D70150001013101210F8E003BE54
:10112000F0D701BE0CD002500310EBE0D89012367D
:101130001336003601360206D8A00306F2D7035054
:10114000D4E10228D2E012AE11D07F0E121402E1D7
:1011500013A00CD0132AE86A0022012207E3D880EA
:10116000013200321332022A0228BFE00250C9E0E5
:1011700013C005F000C006F00134076E0230086E9F
:101180000732089E0FBE088E74EF08F00736083647
:1011900002E30F840F7E06E10F80086A076A066A81
:1011A000056A1200082803E0D88007321200D890A0
:1011B000073202E10F8212000F8612000C360D3644
:1011C00002E30F8C0F7E06E10F880D6A0C6A0B6A32
:1011D0000A6A12000D2803E0D8800C321200D89061
:0811E0000C32EAE10F8A120053
:0811E8000E0EF66E000EF76E0C
:1011F000000EF86E01010900F550916F0900F550DD
:10120000926F03E1916701D03DD00900F5508C6FDA
:101210000900F5508D6F0900F5508E6F0900090027
:10122000F550E96E0900F550EA6E09000900090061
:10123000F5508F6F0900F550906F09000900F6CF47
:1012400093F1F7CF94F1F8CF95F18CC1F6FF8DC1F2
:10125000F7FF8EC1F8FF01018F5302E1905307E0C1
:101260000900F550EE6E8F07F8E29007F9D793C1A9
:10127000F6FF94C1F7FF95C1F8FF01019107000E39
:06128000925BBFD71200D3
:0A128600000EF36E00EE00F0060EFD
:1012900001D81200EA6002D0EE6AFCD7F350E96090
:0612A0001200EE6AFCD70B
:0A12A60015EE00F025EE00F0F86AE6
:1012B0000F9CF4EC08F003EC00F0A3EC01F0FBD77A
:0212C00012001A
:0412C200000000FF29
:020000040030CA
:010003000EEE
:00000001FF
