:020000040000FA
:06000000F3EF0BF012000B
:020006001200E6
:060008000EEF00F01200F3
:02000E000100EF
:0C00100002180000FA00000004000000CC
:04001C00DACFE4FF54
:10002000E2CFDAFFE9CFE4FFEACFE4FFF6CFE4FF67
:10003000F7CFE4FFF5CFE4FFF3CFE4FFF4CFE4FF25
:10004000FACFE4FF00EE00F0140EE80403E3EECF75
:10005000E4FFFBD700EE14F00C0EE80403E3EECF50
:10006000E4FFFBD7E652F2A001D18150816E80B04F
:1000700044D081B80FD02B0E8C6E0001FA51FA2BB0
:10008000EA6A800FE96E000EEA228CCFEFFF9BD95F
:10009000A0D932D081BA0FD02D0E8C6E0001FA514A
:1000A000FA2BEA6A800FE96E000EEA228CCFEFFF8E
:1000B0008AD98FD921D081BC0FD02A0E8C6E000135
:1000C000FA51FA2BEA6A800FE96E000EEA228CCF11
:1000D000EFFF79D97ED910D081BE0ED02F0E8C6E55
:1000E0000001FA51FA2BEA6A800FE96E000EEA224B
:1000F0008CCFEFFF68D96DD9B7D080B237D081B837
:1001000002D090D932D081BA0FD0330E8C6E00015C
:10011000FA51FA2BEA6A800FE96E000EEA22330EDA
:10012000EF6E51D956D921D081BC0FD0360E8C6ECE
:100130000001FA51FA2BEA6A800FE96E000EEA22FA
:10014000360EEF6E40D945D910D081BE0ED0390E93
:100150008C6E0001FA51FA2BEA6A800FE96E000EEC
:10016000EA22390EEF6E2FD934D97ED080B444D034
:1001700081B80FD0300E8C6E0001FA51FA2BEA6A6A
:10018000800FE96E000EEA22300EEF6E1CD921D9E5
:1001900032D081BA0FD0320E8C6E0001FA51FA2B98
:1001A000EA6A800FE96E000EEA22320EEF6E0BD97A
:1001B00010D921D081BC0FD0350E8C6E0001FA51C0
:1001C000FA2BEA6A800FE96E000EEA22350EEF6E16
:1001D000FAD8FFD810D081BE0ED0380E8C6E000138
:1001E000FA51FA2BEA6A800FE96E000EEA22380E05
:1001F000EF6EE9D8EED838D080B636D081B802D0CC
:10020000FAD832D081BA0FD0310E8C6E0001FA517B
:10021000FA2BEA6A800FE96E000EEA22310EEF6EC9
:10022000D2D8D7D821D081BC0FD0340E8C6E00012B
:10023000FA51FA2BEA6A800FE96E000EEA22340EB8
:10024000EF6EC1D8C6D810D081BE0ED0370E8C6EDE
:100250000001FA51FA2BEA6A800FE96E000EEA22D9
:10026000370EEF6EB0D8B5D8F29049D0F2A210D0C8
:10027000F292280E8C6E0001FA51FA2BEA6A800F76
:10028000E96E000EEA22280EEF6E9DD8A2D837D074
:10029000F0A010D0F090290E8C6E0001FA51FA2BCC
:1002A000EA6A800FE96E000EEA22290EEF6E8BD803
:1002B00090D825D09EA023D09E903C0ECF6EB00E3D
:1002C000CE6E0001FB51030A16E0010A0FE0030A9B
:1002D00008E0010A01E013D0010EFB6F7E0E896E6B
:1002E0000ED0020EFB6F7D0E896E09D0030EFB6FE0
:1002F0007B0E896E04D0FB6B770E896E00D0E552C1
:1003000000EE1FF00C0EE80403E3E5CFEDFFFBD792
:1003100000EE13F0140EE80403E3E5CFEDFFFBD786
:10032000E5CFFAFFE5CFF4FFE5CFF3FFE5CFF5FF2B
:10033000E5CFF7FFE5CFF6FFE5CFEAFFE5CFE9FF31
:10034000E5CFDAFF1100F00E936E956AF80E946E09
:10035000700E926E070EC16E15D8F28EF28CF28678
:100360009D80F288F086F090F2929E90F290140EAA
:10037000CD6E3C0ECF6EB00ECE6E7E0E896ECD80F1
:10038000FFD71200380E8C6E18D809D8010E8C6E6B
:1003900014D805D80F0E8C6E10D8CFEF01F0010ED7
:1003A000D56E0B0ED76EBC0ED66EF4EF01F0480E74
:1003B000D56EFD0ED66EF4EF01F0829082928284AB
:1003C000F6DF82941200828082928284F0DF82942F
:1003D000120082908282958E8294E9DF828483BEAD
:1003E000FBD78294959E1200F294D58EF2A4FED78C
:1003F000F294D59E1200010E8C6EDFDFD0DF00017B
:10040000FA6B100EFA5D09E2FA51FA2BEA6A800FD4
:10041000E96E000EEA22EF6AF4D7FA6BFD69FAC0C2
:10042000FCF01200D9CFE6FFE1CFD9FF070EE1269D
:10043000DF6ADE52010EDD6E020EDB6ADF50EA6A11
:10044000800FE96E000EEA22EF503AE0DF50EA6AD0
:10045000800FE96E000EEA22EF5028080BE1DF5012
:10046000EA6A800FE96E000EEA22EF50E66EDADAF1
:10047000E55224D0DF50EA6A800FE96E000EEA22CE
:10048000EF5029081BE1FF0E0001FD5D04E1010EA4
:10049000DB6A16D013D0DCDAE76E020EE7CFDBFFA3
:1004A000DB5029080BE1DF50EA6A800FE96E000E8D
:1004B000EA22EF50290802E1010EDB6ADF2ABED7EB
:1004C0000001FD3502E2010EDB6A010EDB5001E1A5
:1004D000CDDA010EDB5029E0030EDB6A040EDB6A85
:1004E000050EDB6A060EDB6A37DBCCEC06F0030E8A
:1004F00006C0DBFF040E07C0DBFF050E08C0DBFFF4
:10050000060E09C0DBFFD950030FE96EDACFEAFF10
:10051000EECFE6FFEECFE6FFEECFE6FFEFCFE6FF52
:100520000ED8E552E552E552E552070EE15C02E2D3
:10053000E16AE552E16EE552E7CFD9FF1200D9CF6B
:10054000E6FFE1CFD9FFDBDAFB0EDBCF14F0FC0EC8
:10055000DBCF15F0FD0EDBCF16F0FE0EDBCF17F074
:100560000C6A0D6A0E6A0F6A14C007F015C008F015
:1005700016C009F017C00AF09AEC0AF0010A14E05C
:10058000D950FB0FE96EFF0EDA20EA6EEECFE6FFE0
:10059000EECFE6FFEECFE6FFEFCFE6FF6FD8E552F6
:1005A000E552E552E55229D0076A086A800E096EC5
:1005B000BF0E0A6EFB0EDBCF0CF0FC0EDBCF0DF096
:1005C000FD0EDBCF0EF0FE0EDBCF0FF0D8EC09F006
:1005D00007C014F008C015F009C016F00AC017F0E3
:1005E00014C0E6FF15C0E6FF16C0E6FF17C0E6FF21
:1005F00028D9E552E552E552E552E552E7CFD9FF59
:100600001200D9CFE6FFE1CFD9FFD950FD0FE96E37
:10061000FF0EDA20EA6EEE50ED102CE0FD0EDBCF7F
:1006200014F0FE0EDBCF15F00A0E0D6E0E6A14C02C
:1006300008F015C009F045EC0AF004C014F005C03C
:1006400015F0300E1424E66EEDD9E552D950FD0FA9
:10065000E96EFF0EDA20EA6E0A0E0D6E0E6AEECF1C
:1006600008F0EDCF09F045EC0AF008C0EEFF09C034
:10067000EDFFCBD7E552E7CFD9FF1200D9CFE6FF88
:10068000E1CFD9FF060EE126FB0EDBCF07F0FC0E13
:10069000DBCF08F0FD0EDBCF09F0FE0EDBCF0AF05A
:1006A0006BEC0AF008C0DEFF09C0DDFFFB0EDBCFFC
:1006B00014F0FC0EDBCF15F0FD0EDBCF16F0FE0EB6
:1006C000DBCF17F0000EDFCF08F0010EDBCF09F013
:1006D000DBEC08F007C018F008C019F009C01AF0E8
:1006E0000AC01BF018C00CF019C00DF01AC00EF0B3
:1006F0001BC00FF014C007F015C008F016C009F0B9
:1007000017C00AF0EEEC08F0020E07C0DBFF030E84
:1007100008C0DBFF040E09C0DBFF050E0AC0DBFFCB
:10072000146A156A7A0E166E440E176ED950020FAF
:10073000E96EDACFEAFFEECF07F0EECF08F0EECFAA
:1007400009F0EFCF0AF014C00CF015C00DF016C080
:100750000EF017C00FF0D8EC09F00AC0EDFF09C089
:10076000EDFF08C0EDFF07C0EFFF020EDBCF07F083
:10077000030EDBCF08F0040EDBCF09F0050EDBCF54
:100780000AF06BEC0AF008C0DEFF09C0DDFF0001D3
:10079000FD69D9CFE9FFDACFEAFFEE50ED100DE1A8
:1007A000300EE66E3FD9E552300EE66E3BD9E5528B
:1007B000300EE66E37D9E55207D0DECFE6FFDDCF4B
:1007C000E6FF1FDFE552E5520001FD2BFDC0E9FF0A
:1007D000EA6AE9BEEA68900EE926000EEA222E0EC9
:1007E000EF6EFB0EDBCF07F0FC0EDBCF08F0FD0E4B
:1007F000DBCF09F0FE0EDBCF0AF06BEC0AF008C08D
:10080000DEFF09C0DDFFD9CFE9FFDACFEAFFEE5006
:10081000ED1005E1300EE66E05D9E55207D0DECFCA
:10082000E6FFDDCFE6FFEDDEE552E552F1D8060E3C
:10083000E15C02E2E16AE552E16EE552E7CFD9FF01
:100840001200D9CFE6FFE1CFD9FF060EE126FB0E5D
:10085000DBCF07F0FC0EDBCF08F0FD0EDBCF09F09D
:10086000FE0EDBCF0AF06BEC0AF008C0DEFF09C019
:10087000DDFFFB0EDBCF14F0FC0EDBCF15F0FD0E21
:10088000DBCF16F0FE0EDBCF17F0000EDFCF08F047
:10089000010EDBCF09F0DBEC08F007C018F008C050
:1008A00019F009C01AF00AC01BF018C00CF019C0EA
:1008B0000DF01AC00EF01BC00FF014C007F015C0E9
:1008C00008F016C009F017C00AF0EEEC08F0020EAE
:1008D00007C0DBFF030E08C0DBFF040E09C0DBFF0F
:1008E000050E0AC0DBFF146A156A7A0E166E440EF6
:1008F000176ED950020FE96EDACFEAFFEECF07F09C
:10090000EECF08F0EECF09F0EFCF0AF014C00CF0F4
:1009100015C00DF016C00EF017C00FF0D8EC09F09E
:100920000AC0EDFF09C0EDFF08C0EDFF07C0EFFFF3
:10093000020EDBCF07F0030EDBCF08F0040EDBCF97
:1009400009F0050EDBCF0AF06BEC0AF008C0DEFF01
:1009500009C0DDFF0001FD69D9CFE9FFDACFEAFF69
:10096000EE50ED100DE1300EE66E5CD8E552300E23
:10097000E66E58D8E552300EE66E54D8E55207D0F0
:10098000DECFE6FFDDCFE6FF3CDEE552E5520001BB
:10099000FD2BFDC0E9FFEA6AE9BEEA68900EE92690
:1009A000000EEA222E0EEF6EFB0EDBCF07F0FC0EE0
:1009B000DBCF08F0FD0EDBCF09F0FE0EDBCF0AF037
:1009C0006BEC0AF008C0DEFF09C0DDFFD9CFE9FFFC
:1009D000DACFEAFFEE50ED1005E1300EE66E22D8D8
:1009E000E55207D0DECFE6FFDDCFE6FF0ADEE552B7
:1009F000E5522D0EE66E16D8E5520AD8060EE15CD9
:100A000002E2E16AE552E16EE552E7CFD9FF12005A
:100A1000FF0E0001FD5D05E01BD88C6ED4DCD9DC37
:100A2000F7D71200D9CFE6FFE1CFD9FF0001FD2BA8
:100A3000FDC0E9FFEA6AE9BEEA68900EE926000E09
:100A4000EA22FE0EDBCFEFFFE552E7CFD9FF12001F
:100A50000001FD51FD07E96EEA6AE9BEEA68900E01
:100A6000E926000EEA22EF5000D01200D9CFE6FFAF
:100A7000E1CFD9FF090EE126D9CFE9FFDACFEAFFAE
:100A80005F0EEE6E450EEE6E520EEE6EEE6E4F0E79
:100A9000EE6E520EEE6E5F0EEE6EEE6A080EDB6AC2
:100AA0002ED8D9CF14F0DACF15F0080EDB500F0195
:100AB0001424E96E000E1520EA6EEF5013E0D9CF32
:100AC00014F0DACF15F0080EDBCFF3FFDB2AF3507A
:100AD0001424E96E000E1520EA6EEF508C6E73DC64
:100AE00078DCDFD75CDC5BDC0FD8090EE15C02E26E
:100AF000E16AE552E16EE552E7CFD9FF1200C00E80
:100B00008C6E5BDCE9EF01F0D9CFE6FFE1CFD9FFD6
:100B1000E652DF6AF4DF100EDF5C06E2200E8C6E18
:100B200052DC57DCDF2AF7D70DD8DF6A0001FA5113
:100B3000DF5C03E20CD8DF2AF9D7E552E552E7CFB4
:100B4000D9FF1200800E8C6E38DCE9EF01F0140E34
:100B50008C6E33DCE9EF01F0D9CFE6FFE1CFD9FFAE
:100B6000E652DF6A0001FD69DF50EA6A800FE96E34
:100B7000000EEA22EF504DE0DF50EA6A800FE96E86
:100B8000000EEA22EF5028082DE0DF50EA6A800FBD
:100B9000E96E000EEA22EF50290824E0DF50EA6AED
:100BA000800FE96E000EEA22EF502B081BE0DF50A9
:100BB000EA6A800FE96E000EEA22EF502D0812E07B
:100BC000DF50EA6A800FE96E000EEA22EF502A0831
:100BD00009E0DF50EA6A800FE96E000EEA22EF506A
:100BE0002F080BE1DF50EA6A800FE96E000EEA225F
:100BF000EF50E66E1CD8E5520AD0DF50EA6A800F4B
:100C0000E96E000EEA22EF50E66EB3D8E552DF2A15
:100C1000ABD7FF0E0001FD5D05E01ADFE66EA9D837
:100C2000E552F7D7E552E552E7CFD9FF1200D9CF09
:100C3000E6FFE1CFD9FFFE0EDB5028080FE10001EF
:100C4000FD2BFDC0E9FFEA6AE9BEEA68900EE926DD
:100C5000000EEA22FE0EDBCFEFFF87D0FE0EDB5048
:100C60002A0804E0FE0EDB502F083CE1FDC0E9FF3E
:100C7000EA6AE9BEEA68900EE926000EEA22EF5021
:100C80002B0821E0FDC0E9FFEA6AE9BEEA68900EA0
:100C9000E926000EEA22EF502D0815E0FDC0E9FF1D
:100CA000EA6AE9BEEA68900EE926000EEA22EF50F1
:100CB000280809E0FF0E0001FD5D05E0C9DEE66ED3
:100CC00058D8E552D3D70001FD2BFDC0E9FFEA6AF1
:100CD000E9BEEA68900EE926000EEA22FE0EDBCF9E
:100CE000EFFF43D0FE0EDB502B0804E0FE0EDB507E
:100CF0002D0824E1FDC0E9FFEA6AE9BEEA68900E2A
:100D0000E926000EEA22EF50280809E0FF0E000154
:100D1000FD5D05E09DDEE66E2CD8E552EBD70001C7
:100D2000FD2BFDC0E9FFEA6AE9BEEA68900EE926FC
:100D3000000EEA22FE0EDBCFEFFF17D0FE0EDB50D7
:100D4000290813E1FDC0E9FFEA6AE9BEEA68900EEE
:100D5000E926000EEA22EF50280805E079DEE66E6B
:100D600008D8E552EFD70001FD07E552E7CFD9FFDC
:100D70001200D9CFE6FFE1CFD9FF0001FC51FC2BD7
:100D8000EA6AA00FE96E000EEA22FE0EDBCFEFFF4B
:100D9000E552E7CFD9FF1200D9CFE6FFE1CFD9FF67
:100DA000090EE126DF6A010EDB6A020EDB6A030E22
:100DB000DB6A040EDB6A050EDB6A060EDB6A070ED1
:100DC000DB6A080EDB6A0001FD69DF50EA6AA00FEA
:100DD000E96E000EEA22EF5001E1AFD1DF50EA6A7E
:100DE000A00FE96E000EEA22EF502B084AE0DF5018
:100DF000EA6AA00FE96E000EEA22EF502D0841E0EA
:100E0000DF50EA6AA00FE96E000EEA22EF502F08C9
:100E100038E0DF50EA6AA00FE96E000EEA22EF50D8
:100E20002A082FE0DF50EA6AA00FE96E000EEA22DE
:100E3000EF50D00F186E18C009F0C8EC08F007C0CA
:100E400014F008C015F009C016F00AC017F0000130
:100E5000FD2BFDC0E9FFEA6AE9BEEA68D890E936F1
:100E6000EA36D890E936EA36B00EE926000EEA22D4
:100E700014C0EEFF15C0EEFF16C0EEFF17C0EEFF68
:100E80005AD1FD51FD07E96EEA6AE9BEEA68D890D9
:100E9000E936EA36D890E936EA36B00EE926000E91
:100EA000EA22010EEECFDBFF020EEECFDBFF030ED8
:100EB000EECFDBFF040EEECFDBFFFD51FD07E96E49
:100EC000EA6AE9BEEA68D890E936EA36D890E936A7
:100ED000EA36B00EE926000EEA22050EEECFDBFF61
:100EE000060EEECFDBFF070EEECFDBFF080EEECFD8
:100EF000DBFFDF50EA6AA00FE96E000EEA22EF5036
:100F00002A0A01E1DCD0050A01E19DD0020A4FE086
:100F1000060A01E010D1050EDBCF18F0060EDBCF7C
:100F200019F0070EDBCF1AF0080EDBCF1BF0010E15
:100F3000DBCF1CF0020EDBCF1DF0030EDBCF1EF06B
:100F4000040EDBCF1FF01CC00CF01DC00DF01EC046
:100F50000EF01FC00FF018C007F019C008F01AC03B
:100F600009F01BC00AF0EFEC08F007C014F008C04D
:100F700015F009C016F00AC017F00001FD2BFDC0E6
:100F8000E9FFEA6AE9BEEA68D890E936EA36D8901D
:100F9000E936EA36B00EE926000EEA2214C0EEFF6A
:100FA00015C0EEFF16C0EEFF17C0EEFFC4D0050E51
:100FB000DBCF18F0060EDBCF19F0070EDBCF1AF0EF
:100FC000080EDBCF1BF0010EDBCF1CF0020EDBCFD7
:100FD0001DF0030EDBCF1EF0040EDBCF1FF01CC094
:100FE0000CF01DC00DF01EC00EF01FC00FF018C099
:100FF00007F019C008F01AC009F01BC00AF0EEECA7
:1010000008F007C014F008C015F009C016F00AC0B7
:1010100017F00001FD2BFDC0E9FFEA6AE9BEEA68AE
:10102000D890E936EA36D890E936EA36B00EE926A5
:10103000000EEA2214C0EEFF15C0EEFF16C0EEFF50
:1010400017C0EEFF78D0050EDBCF07F0060EDBCF22
:1010500008F0070EDBCF09F0080EDBCF0AF0010E17
:10106000DBCF0CF0020EDBCF0DF0030EDBCF0EF06A
:10107000040EDBCF0FF085EC09F007C014F008C0B8
:1010800015F009C016F00AC017F00001FD2BFDC0D5
:10109000E9FFEA6AE9BEEA68D890E936EA36D8900C
:1010A000E936EA36B00EE926000EEA2214C0EEFF59
:1010B00015C0EEFF16C0EEFF17C0EEFF3CD0050EC8
:1010C000DBCF07F0060EDBCF08F0070EDBCF09F011
:1010D000080EDBCF0AF0010EDBCF0CF0020EDBCFE7
:1010E0000DF0030EDBCF0EF0040EDBCF0FF0D8ECCB
:1010F00009F007C014F008C015F009C016F00AC0C6
:1011000017F00001FD2BFDC0E9FFEA6AE9BEEA68BD
:10111000D890E936EA36D890E936EA36B00EE926B4
:10112000000EEA2214C0EEFF15C0EEFF16C0EEFF5F
:1011300017C0EEFF00D0DF2A48D6FD51FD07E96E4B
:10114000EA6AE9BEEA68D890E936EA36D890E93624
:10115000EA36B00EE926000EEA22EECF14F0EECF0A
:1011600015F0EECF16F0EFCF17F014C006F015C053
:1011700007F016C008F017C009F0090EE15C03E2A1
:1011800000D0E16AE552E16EE552E7CFD9FF1200E7
:10119000019E05D0019E09AE02D0096C018E09C0E6
:1011A00003F0026A136A126A860E046E056A14EF6F
:1011B0000BF0019E08D0019E09AE05D0086C091EF7
:1011C000E86A0922018E09C003F008C002F0136A20
:1011D000126A8E0E046E056A14EF0BF00F7E016A20
:1011E00050EC0BF068EC0BF001B6F8EF0AF001A23E
:1011F0000AD001AA03D001BEF8EF0AF001A404EF5F
:101200000BF001EF0BF001AA05D001AC04EF0BF0DD
:1012100001EF0BF001A00AD001A808D001BE04D054
:1012200001A402D00DEF0BF011EF0BF0126A056A6A
:101230000F500A5C116E10E307C013F008C002F0F3
:1012400009C003F00AC010F00CC007F00DC008F090
:101250000EC009F0013A09D00CC013F00DC002F025
:101260000EC003F00FC010F0116C019E01BC018E86
:1012700010C004F001B040EF0BF01A0E116040EF07
:101280000BF0046A0A6A01A408D0076C081E091E44
:101290000A1EE86A082209220A2201AC08D0136C4F
:1012A000021E031E041EE86A022203220422066AAA
:1012B000115207E00A340932083207320632112E81
:1012C000F9D70750132608500222095003220A506A
:1012D000042206C012F0019E04AE0BD0126C131E45
:1012E000021E031E041EE86A1322022203220422A5
:1012F000018E04A006D0D88003320232133212329B
:10130000102A10C004F014EF0BF0016A50EC0BF03F
:1013100068EC0BF001B6F8EF0AF001A205D001BAB3
:10132000F8EF0AF0FFEF0AF001BA0BEF0BF001A0A3
:1013300005D001B8F8EF0AF00BEF0BF001B8FFEFA2
:101340000AF0056A7F0E0A24046EE86A05220F502F
:10135000045EE86A055A1A0E106E0A6A126A136A67
:10136000026A036A0C50075E0D50085A0E50095A63
:10137000000E0A5A09E70C5007260D5008220E509D
:101380000922000E0A2201D0128AD89007360836A8
:1013900009360A36D8901236133602360336102E26
:1013A000E1D7095008100710D8A4128A14EF0BF0E7
:1013B000016A50EC0BF068EC0BF001B6F8EF0AF0A4
:1013C00001A205D001B8F8EF0AF0FFEF0AF001AA78
:1013D00005D001B0F8EF0AF0FFEF0AF001B002D03B
:1013E00001A802D00BEF0BF0056A0F500A24046E1F
:1013F000E86A05227E0E045EE86A055A126A136ADC
:10140000026A036A0E500902F4CF03F0F3CF02F030
:101410000D500902F3501326F4500222000E03224D
:101420000E500802F3501326F4500222000E03223D
:101430000C500902F3501226F4501322000E02221F
:1014400003220D500802F3501226F4501322000E0E
:10145000022203220E500702F3501226F4501322E8
:10146000000E022203220C500802F4501226000E35
:101470001322022203220D500702F4501226000EFE
:1014800013220222032214EF0BF0006A0EAE4EEF7D
:101490000AF00D6C0E1EE86A0E22001E09AE56EF11
:1014A0000AF0086C091EE86A0922001ECDEC0BF058
:1014B00009BE66EF0AF000AE000C086C091EE86A6F
:1014C0000922046C051EE86A0522000C00BE5DEFCF
:1014D0000AF00188FF0C016A50EC0BF001B675EFC1
:1014E0000AF001A20ED001B405D07F0E096EFF0EE6
:1014F000086E1FD0800E096E086A1BD0096A086A40
:1015000018D001B0FBD78F0E0A60EDD77E0E0A64AB
:10151000F5D78E0E0A5C05E0D890093208320A2A07
:10152000F8D701A406D0086C091EE86A092209AEA2
:10153000E5D71200A3EC0AF001B6000C01B0000CD4
:1015400001A4000C010C016A50EC0BF068EC0BF0EC
:1015500001B6120001AE08D001A004D001A802D04B
:1015600001801200019012000F500A5C0BE10E5036
:10157000095C08E10D50085C05E10C50075C02E1D4
:1015800001801200D8A002D0018E10D00A500FC0E6
:101590000AF00F6E09500EC009F00E6E08500DC013
:1015A00008F00D6E07500CC007F00C6E0F500A5C6F
:1015B00010E0FF0F09E0019001B403D001AE0184F7
:1015C000120001AE019412000F2AD8900E320D3293
:1015D0000C320C50075E0D50085A0E50095A09BEC5
:1015E000EAD7D8900736083609360A2EF8D7C8D772
:1015F0007F0E0A6EFF0E096E086E076E12007F0ED8
:1016000001BEFF0E0A6E02D07F0E0A6E800E096EBA
:10161000086A076AF3D701AE04D0800E0A6E096A21
:10162000F7D70A6A096AF4D7035002101310121090
:10163000F8E005BEF0D703BE0CD004500510EBE077
:10164000D89012361336023603360406D8A00506A3
:10165000F2D70550D4E10428D2E012AE11D07F0EAB
:10166000121402E113A00CD0132AE86A022203220A
:1016700007E3D880033202321332042A0428BFE081
:101680000450C9E013C007F002C008F00334096E2B
:1016900004300A6E09320A9E01BE0A8EFEEF0AF07D
:1016A00009360A3602E30184017E06E101800A6AF6
:1016B000096A086A076A12000A2803E0D88009321A
:1016C0001200D890093202E1018212000186120054
:1016D0000E360F3602E3018C017E06E101880F6AA7
:1016E0000E6A0D6A0C6A12000F2803E0D8800E32D1
:0C16F0001200D8900E32EAE1018A1200CC
:0416FC000E0EF66E6A
:10170000000EF76E000EF86E00010900F550F56F3F
:101710000900F550F66F03E1F56701D03DD00900EF
:10172000F550F06F0900F550F16F0900F550F26FB8
:1017300009000900F550E96E0900F550EA6E09004C
:1017400009000900F550F36F0900F550F46F090026
:101750000900F6CFF7F0F7CFF8F0F8CFF9F0F0C0C6
:10176000F6FFF1C0F7FFF2C0F8FF0001F35302E10A
:10177000F45307E00900F550EE6EF307F8E2F407C2
:10178000F9D7F7C0F6FFF8C0F7FFF9C0F8FF00017E
:0A179000F507000EF65BBFD712004C
:06179A00056A046A100E4E
:1017A000E76ED89008360936043605360D50045CCD
:1017B0000E50055805E30D50045E0E50055A082AD8
:0617C000E72EF0D7120035
:0A17C600000EF36E00EE00F0060EB8
:1017D00001D81200EA6002D0EE6AFCD7F350E9604B
:0617E0001200EE6AFCD7C6
:0A17E60015EE00F025EE00F0F86AA1
:1017F000019C7EEC0BF003EC00F0A3EC01F0FBD7B6
:021800001200D4
:04180200000000FFE3
:020000040030CA
:010003000EEE
:00000001FF
